{
  "_format": "hh-sol-artifact-1",
  "contractName": "DeLayerBridged",
  "sourceName": "contracts/DeLayerBridged.sol",
  "abi": [
    {
      "inputs": [
        {
          "internalType": "string",
          "name": "_name",
          "type": "string"
        },
        {
          "internalType": "string",
          "name": "_symbol",
          "type": "string"
        },
        {
          "internalType": "address",
          "name": "_lzEndpoint",
          "type": "address"
        },
        {
          "internalType": "address",
          "name": "_delegate",
          "type": "address"
        },
        {
          "internalType": "address",
          "name": "_router",
          "type": "address"
        }
      ],
      "stateMutability": "nonpayable",
      "type": "constructor"
    },
    {
      "inputs": [
        {
          "internalType": "address",
          "name": "target",
          "type": "address"
        }
      ],
      "name": "AddressEmptyCode",
      "type": "error"
    },
    {
      "inputs": [
        {
          "internalType": "address",
          "name": "account",
          "type": "address"
        }
      ],
      "name": "AddressInsufficientBalance",
      "type": "error"
    },
    {
      "inputs": [
        {
          "internalType": "address",
          "name": "from",
          "type": "address"
        },
        {
          "internalType": "address",
          "name": "to",
          "type": "address"
        }
      ],
      "name": "DeLayerBlacklisted",
      "type": "error"
    },
    {
      "inputs": [
        {
          "internalType": "uint256",
          "name": "amount",
          "type": "uint256"
        }
      ],
      "name": "DeLayerMaxBuyExceeded",
      "type": "error"
    },
    {
      "inputs": [],
      "name": "DeLayerTradingNotStarted",
      "type": "error"
    },
    {
      "inputs": [
        {
          "internalType": "address",
          "name": "spender",
          "type": "address"
        },
        {
          "internalType": "uint256",
          "name": "allowance",
          "type": "uint256"
        },
        {
          "internalType": "uint256",
          "name": "needed",
          "type": "uint256"
        }
      ],
      "name": "ERC20InsufficientAllowance",
      "type": "error"
    },
    {
      "inputs": [
        {
          "internalType": "address",
          "name": "sender",
          "type": "address"
        },
        {
          "internalType": "uint256",
          "name": "balance",
          "type": "uint256"
        },
        {
          "internalType": "uint256",
          "name": "needed",
          "type": "uint256"
        }
      ],
      "name": "ERC20InsufficientBalance",
      "type": "error"
    },
    {
      "inputs": [
        {
          "internalType": "address",
          "name": "approver",
          "type": "address"
        }
      ],
      "name": "ERC20InvalidApprover",
      "type": "error"
    },
    {
      "inputs": [
        {
          "internalType": "address",
          "name": "receiver",
          "type": "address"
        }
      ],
      "name": "ERC20InvalidReceiver",
      "type": "error"
    },
    {
      "inputs": [
        {
          "internalType": "address",
          "name": "sender",
          "type": "address"
        }
      ],
      "name": "ERC20InvalidSender",
      "type": "error"
    },
    {
      "inputs": [
        {
          "internalType": "address",
          "name": "spender",
          "type": "address"
        }
      ],
      "name": "ERC20InvalidSpender",
      "type": "error"
    },
    {
      "inputs": [],
      "name": "FailedInnerCall",
      "type": "error"
    },
    {
      "inputs": [],
      "name": "InvalidDelegate",
      "type": "error"
    },
    {
      "inputs": [],
      "name": "InvalidEndpointCall",
      "type": "error"
    },
    {
      "inputs": [],
      "name": "InvalidLocalDecimals",
      "type": "error"
    },
    {
      "inputs": [
        {
          "internalType": "bytes",
          "name": "options",
          "type": "bytes"
        }
      ],
      "name": "InvalidOptions",
      "type": "error"
    },
    {
      "inputs": [],
      "name": "LzTokenUnavailable",
      "type": "error"
    },
    {
      "inputs": [
        {
          "internalType": "uint32",
          "name": "eid",
          "type": "uint32"
        }
      ],
      "name": "NoPeer",
      "type": "error"
    },
    {
      "inputs": [
        {
          "internalType": "uint256",
          "name": "msgValue",
          "type": "uint256"
        }
      ],
      "name": "NotEnoughNative",
      "type": "error"
    },
    {
      "inputs": [
        {
          "internalType": "address",
          "name": "addr",
          "type": "address"
        }
      ],
      "name": "OnlyEndpoint",
      "type": "error"
    },
    {
      "inputs": [
        {
          "internalType": "uint32",
          "name": "eid",
          "type": "uint32"
        },
        {
          "internalType": "bytes32",
          "name": "sender",
          "type": "bytes32"
        }
      ],
      "name": "OnlyPeer",
      "type": "error"
    },
    {
      "inputs": [],
      "name": "OnlySelf",
      "type": "error"
    },
    {
      "inputs": [
        {
          "internalType": "address",
          "name": "owner",
          "type": "address"
        }
      ],
      "name": "OwnableInvalidOwner",
      "type": "error"
    },
    {
      "inputs": [
        {
          "internalType": "address",
          "name": "account",
          "type": "address"
        }
      ],
      "name": "OwnableUnauthorizedAccount",
      "type": "error"
    },
    {
      "inputs": [
        {
          "internalType": "address",
          "name": "token",
          "type": "address"
        }
      ],
      "name": "SafeERC20FailedOperation",
      "type": "error"
    },
    {
      "inputs": [
        {
          "internalType": "bytes",
          "name": "result",
          "type": "bytes"
        }
      ],
      "name": "SimulationResult",
      "type": "error"
    },
    {
      "inputs": [
        {
          "internalType": "uint256",
          "name": "amountLD",
          "type": "uint256"
        },
        {
          "internalType": "uint256",
          "name": "minAmountLD",
          "type": "uint256"
        }
      ],
      "name": "SlippageExceeded",
      "type": "error"
    },
    {
      "anonymous": false,
      "inputs": [
        {
          "indexed": true,
          "internalType": "address",
          "name": "owner",
          "type": "address"
        },
        {
          "indexed": true,
          "internalType": "address",
          "name": "spender",
          "type": "address"
        },
        {
          "indexed": false,
          "internalType": "uint256",
          "name": "value",
          "type": "uint256"
        }
      ],
      "name": "Approval",
      "type": "event"
    },
    {
      "anonymous": false,
      "inputs": [
        {
          "indexed": false,
          "internalType": "uint256",
          "name": "fee",
          "type": "uint256"
        }
      ],
      "name": "DistributedFees",
      "type": "event"
    },
    {
      "anonymous": false,
      "inputs": [
        {
          "components": [
            {
              "internalType": "uint32",
              "name": "eid",
              "type": "uint32"
            },
            {
              "internalType": "uint16",
              "name": "msgType",
              "type": "uint16"
            },
            {
              "internalType": "bytes",
              "name": "options",
              "type": "bytes"
            }
          ],
          "indexed": false,
          "internalType": "struct EnforcedOptionParam[]",
          "name": "_enforcedOptions",
          "type": "tuple[]"
        }
      ],
      "name": "EnforcedOptionSet",
      "type": "event"
    },
    {
      "anonymous": false,
      "inputs": [
        {
          "indexed": false,
          "internalType": "address",
          "name": "inspector",
          "type": "address"
        }
      ],
      "name": "MsgInspectorSet",
      "type": "event"
    },
    {
      "anonymous": false,
      "inputs": [
        {
          "indexed": true,
          "internalType": "bytes32",
          "name": "guid",
          "type": "bytes32"
        },
        {
          "indexed": false,
          "internalType": "uint32",
          "name": "srcEid",
          "type": "uint32"
        },
        {
          "indexed": true,
          "internalType": "address",
          "name": "toAddress",
          "type": "address"
        },
        {
          "indexed": false,
          "internalType": "uint256",
          "name": "amountReceivedLD",
          "type": "uint256"
        }
      ],
      "name": "OFTReceived",
      "type": "event"
    },
    {
      "anonymous": false,
      "inputs": [
        {
          "indexed": true,
          "internalType": "bytes32",
          "name": "guid",
          "type": "bytes32"
        },
        {
          "indexed": false,
          "internalType": "uint32",
          "name": "dstEid",
          "type": "uint32"
        },
        {
          "indexed": true,
          "internalType": "address",
          "name": "fromAddress",
          "type": "address"
        },
        {
          "indexed": false,
          "internalType": "uint256",
          "name": "amountSentLD",
          "type": "uint256"
        },
        {
          "indexed": false,
          "internalType": "uint256",
          "name": "amountReceivedLD",
          "type": "uint256"
        }
      ],
      "name": "OFTSent",
      "type": "event"
    },
    {
      "anonymous": false,
      "inputs": [
        {
          "indexed": true,
          "internalType": "address",
          "name": "previousOwner",
          "type": "address"
        },
        {
          "indexed": true,
          "internalType": "address",
          "name": "newOwner",
          "type": "address"
        }
      ],
      "name": "OwnershipTransferred",
      "type": "event"
    },
    {
      "anonymous": false,
      "inputs": [
        {
          "indexed": false,
          "internalType": "uint32",
          "name": "eid",
          "type": "uint32"
        },
        {
          "indexed": false,
          "internalType": "bytes32",
          "name": "peer",
          "type": "bytes32"
        }
      ],
      "name": "PeerSet",
      "type": "event"
    },
    {
      "anonymous": false,
      "inputs": [
        {
          "indexed": false,
          "internalType": "address",
          "name": "preCrimeAddress",
          "type": "address"
        }
      ],
      "name": "PreCrimeSet",
      "type": "event"
    },
    {
      "anonymous": false,
      "inputs": [
        {
          "indexed": true,
          "internalType": "address",
          "name": "from",
          "type": "address"
        },
        {
          "indexed": true,
          "internalType": "address",
          "name": "to",
          "type": "address"
        },
        {
          "indexed": false,
          "internalType": "uint256",
          "name": "value",
          "type": "uint256"
        }
      ],
      "name": "Transfer",
      "type": "event"
    },
    {
      "inputs": [],
      "name": "SEND",
      "outputs": [
        {
          "internalType": "uint16",
          "name": "",
          "type": "uint16"
        }
      ],
      "stateMutability": "view",
      "type": "function"
    },
    {
      "inputs": [],
      "name": "SEND_AND_CALL",
      "outputs": [
        {
          "internalType": "uint16",
          "name": "",
          "type": "uint16"
        }
      ],
      "stateMutability": "view",
      "type": "function"
    },
    {
      "inputs": [
        {
          "internalType": "address",
          "name": "_liquidityCreator",
          "type": "address"
        }
      ],
      "name": "addLiquidityCreator",
      "outputs": [],
      "stateMutability": "nonpayable",
      "type": "function"
    },
    {
      "inputs": [
        {
          "components": [
            {
              "internalType": "uint32",
              "name": "srcEid",
              "type": "uint32"
            },
            {
              "internalType": "bytes32",
              "name": "sender",
              "type": "bytes32"
            },
            {
              "internalType": "uint64",
              "name": "nonce",
              "type": "uint64"
            }
          ],
          "internalType": "struct Origin",
          "name": "origin",
          "type": "tuple"
        }
      ],
      "name": "allowInitializePath",
      "outputs": [
        {
          "internalType": "bool",
          "name": "",
          "type": "bool"
        }
      ],
      "stateMutability": "view",
      "type": "function"
    },
    {
      "inputs": [
        {
          "internalType": "address",
          "name": "owner",
          "type": "address"
        },
        {
          "internalType": "address",
          "name": "spender",
          "type": "address"
        }
      ],
      "name": "allowance",
      "outputs": [
        {
          "internalType": "uint256",
          "name": "",
          "type": "uint256"
        }
      ],
      "stateMutability": "view",
      "type": "function"
    },
    {
      "inputs": [],
      "name": "approvalRequired",
      "outputs": [
        {
          "internalType": "bool",
          "name": "",
          "type": "bool"
        }
      ],
      "stateMutability": "pure",
      "type": "function"
    },
    {
      "inputs": [
        {
          "internalType": "address",
          "name": "spender",
          "type": "address"
        },
        {
          "internalType": "uint256",
          "name": "value",
          "type": "uint256"
        }
      ],
      "name": "approve",
      "outputs": [
        {
          "internalType": "bool",
          "name": "",
          "type": "bool"
        }
      ],
      "stateMutability": "nonpayable",
      "type": "function"
    },
    {
      "inputs": [
        {
          "internalType": "address",
          "name": "account",
          "type": "address"
        }
      ],
      "name": "balanceOf",
      "outputs": [
        {
          "internalType": "uint256",
          "name": "",
          "type": "uint256"
        }
      ],
      "stateMutability": "view",
      "type": "function"
    },
    {
      "inputs": [
        {
          "internalType": "address",
          "name": "",
          "type": "address"
        }
      ],
      "name": "blacklisted",
      "outputs": [
        {
          "internalType": "bool",
          "name": "",
          "type": "bool"
        }
      ],
      "stateMutability": "view",
      "type": "function"
    },
    {
      "inputs": [
        {
          "internalType": "uint32",
          "name": "_eid",
          "type": "uint32"
        },
        {
          "internalType": "uint16",
          "name": "_msgType",
          "type": "uint16"
        },
        {
          "internalType": "bytes",
          "name": "_extraOptions",
          "type": "bytes"
        }
      ],
      "name": "combineOptions",
      "outputs": [
        {
          "internalType": "bytes",
          "name": "",
          "type": "bytes"
        }
      ],
      "stateMutability": "view",
      "type": "function"
    },
    {
      "inputs": [],
      "name": "composeMsgSender",
      "outputs": [
        {
          "internalType": "address",
          "name": "sender",
          "type": "address"
        }
      ],
      "stateMutability": "view",
      "type": "function"
    },
    {
      "inputs": [],
      "name": "decimalConversionRate",
      "outputs": [
        {
          "internalType": "uint256",
          "name": "",
          "type": "uint256"
        }
      ],
      "stateMutability": "view",
      "type": "function"
    },
    {
      "inputs": [],
      "name": "decimals",
      "outputs": [
        {
          "internalType": "uint8",
          "name": "",
          "type": "uint8"
        }
      ],
      "stateMutability": "view",
      "type": "function"
    },
    {
      "inputs": [
        {
          "internalType": "uint256",
          "name": "_newFee",
          "type": "uint256"
        }
      ],
      "name": "decreaseFee",
      "outputs": [],
      "stateMutability": "nonpayable",
      "type": "function"
    },
    {
      "inputs": [],
      "name": "endpoint",
      "outputs": [
        {
          "internalType": "contract ILayerZeroEndpointV2",
          "name": "",
          "type": "address"
        }
      ],
      "stateMutability": "view",
      "type": "function"
    },
    {
      "inputs": [
        {
          "internalType": "uint32",
          "name": "eid",
          "type": "uint32"
        },
        {
          "internalType": "uint16",
          "name": "msgType",
          "type": "uint16"
        }
      ],
      "name": "enforcedOptions",
      "outputs": [
        {
          "internalType": "bytes",
          "name": "enforcedOption",
          "type": "bytes"
        }
      ],
      "stateMutability": "view",
      "type": "function"
    },
    {
      "inputs": [
        {
          "internalType": "uint256",
          "name": "amount",
          "type": "uint256"
        }
      ],
      "name": "feeWithdrawal",
      "outputs": [],
      "stateMutability": "nonpayable",
      "type": "function"
    },
    {
      "inputs": [
        {
          "internalType": "uint32",
          "name": "_eid",
          "type": "uint32"
        },
        {
          "internalType": "bytes32",
          "name": "_peer",
          "type": "bytes32"
        }
      ],
      "name": "isPeer",
      "outputs": [
        {
          "internalType": "bool",
          "name": "",
          "type": "bool"
        }
      ],
      "stateMutability": "view",
      "type": "function"
    },
    {
      "inputs": [],
      "name": "launchedAt",
      "outputs": [
        {
          "internalType": "uint256",
          "name": "",
          "type": "uint256"
        }
      ],
      "stateMutability": "view",
      "type": "function"
    },
    {
      "inputs": [
        {
          "components": [
            {
              "internalType": "uint32",
              "name": "srcEid",
              "type": "uint32"
            },
            {
              "internalType": "bytes32",
              "name": "sender",
              "type": "bytes32"
            },
            {
              "internalType": "uint64",
              "name": "nonce",
              "type": "uint64"
            }
          ],
          "internalType": "struct Origin",
          "name": "_origin",
          "type": "tuple"
        },
        {
          "internalType": "bytes32",
          "name": "_guid",
          "type": "bytes32"
        },
        {
          "internalType": "bytes",
          "name": "_message",
          "type": "bytes"
        },
        {
          "internalType": "address",
          "name": "_executor",
          "type": "address"
        },
        {
          "internalType": "bytes",
          "name": "_extraData",
          "type": "bytes"
        }
      ],
      "name": "lzReceive",
      "outputs": [],
      "stateMutability": "payable",
      "type": "function"
    },
    {
      "inputs": [
        {
          "components": [
            {
              "components": [
                {
                  "internalType": "uint32",
                  "name": "srcEid",
                  "type": "uint32"
                },
                {
                  "internalType": "bytes32",
                  "name": "sender",
                  "type": "bytes32"
                },
                {
                  "internalType": "uint64",
                  "name": "nonce",
                  "type": "uint64"
                }
              ],
              "internalType": "struct Origin",
              "name": "origin",
              "type": "tuple"
            },
            {
              "internalType": "uint32",
              "name": "dstEid",
              "type": "uint32"
            },
            {
              "internalType": "address",
              "name": "receiver",
              "type": "address"
            },
            {
              "internalType": "bytes32",
              "name": "guid",
              "type": "bytes32"
            },
            {
              "internalType": "uint256",
              "name": "value",
              "type": "uint256"
            },
            {
              "internalType": "address",
              "name": "executor",
              "type": "address"
            },
            {
              "internalType": "bytes",
              "name": "message",
              "type": "bytes"
            },
            {
              "internalType": "bytes",
              "name": "extraData",
              "type": "bytes"
            }
          ],
          "internalType": "struct InboundPacket[]",
          "name": "_packets",
          "type": "tuple[]"
        }
      ],
      "name": "lzReceiveAndRevert",
      "outputs": [],
      "stateMutability": "payable",
      "type": "function"
    },
    {
      "inputs": [
        {
          "components": [
            {
              "internalType": "uint32",
              "name": "srcEid",
              "type": "uint32"
            },
            {
              "internalType": "bytes32",
              "name": "sender",
              "type": "bytes32"
            },
            {
              "internalType": "uint64",
              "name": "nonce",
              "type": "uint64"
            }
          ],
          "internalType": "struct Origin",
          "name": "_origin",
          "type": "tuple"
        },
        {
          "internalType": "bytes32",
          "name": "_guid",
          "type": "bytes32"
        },
        {
          "internalType": "bytes",
          "name": "_message",
          "type": "bytes"
        },
        {
          "internalType": "address",
          "name": "_executor",
          "type": "address"
        },
        {
          "internalType": "bytes",
          "name": "_extraData",
          "type": "bytes"
        }
      ],
      "name": "lzReceiveSimulate",
      "outputs": [],
      "stateMutability": "payable",
      "type": "function"
    },
    {
      "inputs": [],
      "name": "msgInspector",
      "outputs": [
        {
          "internalType": "address",
          "name": "",
          "type": "address"
        }
      ],
      "stateMutability": "view",
      "type": "function"
    },
    {
      "inputs": [],
      "name": "name",
      "outputs": [
        {
          "internalType": "string",
          "name": "",
          "type": "string"
        }
      ],
      "stateMutability": "view",
      "type": "function"
    },
    {
      "inputs": [
        {
          "internalType": "uint32",
          "name": "",
          "type": "uint32"
        },
        {
          "internalType": "bytes32",
          "name": "",
          "type": "bytes32"
        }
      ],
      "name": "nextNonce",
      "outputs": [
        {
          "internalType": "uint64",
          "name": "nonce",
          "type": "uint64"
        }
      ],
      "stateMutability": "view",
      "type": "function"
    },
    {
      "inputs": [],
      "name": "oApp",
      "outputs": [
        {
          "internalType": "address",
          "name": "",
          "type": "address"
        }
      ],
      "stateMutability": "view",
      "type": "function"
    },
    {
      "inputs": [],
      "name": "oAppVersion",
      "outputs": [
        {
          "internalType": "uint64",
          "name": "senderVersion",
          "type": "uint64"
        },
        {
          "internalType": "uint64",
          "name": "receiverVersion",
          "type": "uint64"
        }
      ],
      "stateMutability": "pure",
      "type": "function"
    },
    {
      "inputs": [],
      "name": "oftVersion",
      "outputs": [
        {
          "internalType": "bytes4",
          "name": "interfaceId",
          "type": "bytes4"
        },
        {
          "internalType": "uint64",
          "name": "version",
          "type": "uint64"
        }
      ],
      "stateMutability": "pure",
      "type": "function"
    },
    {
      "inputs": [],
      "name": "owner",
      "outputs": [
        {
          "internalType": "address",
          "name": "",
          "type": "address"
        }
      ],
      "stateMutability": "view",
      "type": "function"
    },
    {
      "inputs": [],
      "name": "pair",
      "outputs": [
        {
          "internalType": "address",
          "name": "",
          "type": "address"
        }
      ],
      "stateMutability": "view",
      "type": "function"
    },
    {
      "inputs": [
        {
          "internalType": "uint32",
          "name": "eid",
          "type": "uint32"
        }
      ],
      "name": "peers",
      "outputs": [
        {
          "internalType": "bytes32",
          "name": "peer",
          "type": "bytes32"
        }
      ],
      "stateMutability": "view",
      "type": "function"
    },
    {
      "inputs": [],
      "name": "preCrime",
      "outputs": [
        {
          "internalType": "address",
          "name": "",
          "type": "address"
        }
      ],
      "stateMutability": "view",
      "type": "function"
    },
    {
      "inputs": [
        {
          "components": [
            {
              "internalType": "uint32",
              "name": "dstEid",
              "type": "uint32"
            },
            {
              "internalType": "bytes32",
              "name": "to",
              "type": "bytes32"
            },
            {
              "internalType": "uint256",
              "name": "amountLD",
              "type": "uint256"
            },
            {
              "internalType": "uint256",
              "name": "minAmountLD",
              "type": "uint256"
            },
            {
              "internalType": "bytes",
              "name": "extraOptions",
              "type": "bytes"
            },
            {
              "internalType": "bytes",
              "name": "composeMsg",
              "type": "bytes"
            },
            {
              "internalType": "bytes",
              "name": "oftCmd",
              "type": "bytes"
            }
          ],
          "internalType": "struct SendParam",
          "name": "_sendParam",
          "type": "tuple"
        }
      ],
      "name": "quoteOFT",
      "outputs": [
        {
          "components": [
            {
              "internalType": "uint256",
              "name": "minAmountLD",
              "type": "uint256"
            },
            {
              "internalType": "uint256",
              "name": "maxAmountLD",
              "type": "uint256"
            }
          ],
          "internalType": "struct OFTLimit",
          "name": "oftLimit",
          "type": "tuple"
        },
        {
          "components": [
            {
              "internalType": "int256",
              "name": "feeAmountLD",
              "type": "int256"
            },
            {
              "internalType": "string",
              "name": "description",
              "type": "string"
            }
          ],
          "internalType": "struct OFTFeeDetail[]",
          "name": "oftFeeDetails",
          "type": "tuple[]"
        },
        {
          "components": [
            {
              "internalType": "uint256",
              "name": "amountSentLD",
              "type": "uint256"
            },
            {
              "internalType": "uint256",
              "name": "amountReceivedLD",
              "type": "uint256"
            }
          ],
          "internalType": "struct OFTReceipt",
          "name": "oftReceipt",
          "type": "tuple"
        }
      ],
      "stateMutability": "view",
      "type": "function"
    },
    {
      "inputs": [
        {
          "components": [
            {
              "internalType": "uint32",
              "name": "dstEid",
              "type": "uint32"
            },
            {
              "internalType": "bytes32",
              "name": "to",
              "type": "bytes32"
            },
            {
              "internalType": "uint256",
              "name": "amountLD",
              "type": "uint256"
            },
            {
              "internalType": "uint256",
              "name": "minAmountLD",
              "type": "uint256"
            },
            {
              "internalType": "bytes",
              "name": "extraOptions",
              "type": "bytes"
            },
            {
              "internalType": "bytes",
              "name": "composeMsg",
              "type": "bytes"
            },
            {
              "internalType": "bytes",
              "name": "oftCmd",
              "type": "bytes"
            }
          ],
          "internalType": "struct SendParam",
          "name": "_sendParam",
          "type": "tuple"
        },
        {
          "internalType": "bool",
          "name": "_payInLzToken",
          "type": "bool"
        }
      ],
      "name": "quoteSend",
      "outputs": [
        {
          "components": [
            {
              "internalType": "uint256",
              "name": "nativeFee",
              "type": "uint256"
            },
            {
              "internalType": "uint256",
              "name": "lzTokenFee",
              "type": "uint256"
            }
          ],
          "internalType": "struct MessagingFee",
          "name": "msgFee",
          "type": "tuple"
        }
      ],
      "stateMutability": "view",
      "type": "function"
    },
    {
      "inputs": [],
      "name": "renounceOwnership",
      "outputs": [],
      "stateMutability": "nonpayable",
      "type": "function"
    },
    {
      "inputs": [],
      "name": "router",
      "outputs": [
        {
          "internalType": "contract IDEXRouter",
          "name": "",
          "type": "address"
        }
      ],
      "stateMutability": "view",
      "type": "function"
    },
    {
      "inputs": [
        {
          "components": [
            {
              "internalType": "uint32",
              "name": "dstEid",
              "type": "uint32"
            },
            {
              "internalType": "bytes32",
              "name": "to",
              "type": "bytes32"
            },
            {
              "internalType": "uint256",
              "name": "amountLD",
              "type": "uint256"
            },
            {
              "internalType": "uint256",
              "name": "minAmountLD",
              "type": "uint256"
            },
            {
              "internalType": "bytes",
              "name": "extraOptions",
              "type": "bytes"
            },
            {
              "internalType": "bytes",
              "name": "composeMsg",
              "type": "bytes"
            },
            {
              "internalType": "bytes",
              "name": "oftCmd",
              "type": "bytes"
            }
          ],
          "internalType": "struct SendParam",
          "name": "_sendParam",
          "type": "tuple"
        },
        {
          "components": [
            {
              "internalType": "uint256",
              "name": "nativeFee",
              "type": "uint256"
            },
            {
              "internalType": "uint256",
              "name": "lzTokenFee",
              "type": "uint256"
            }
          ],
          "internalType": "struct MessagingFee",
          "name": "_fee",
          "type": "tuple"
        },
        {
          "internalType": "address",
          "name": "_refundAddress",
          "type": "address"
        }
      ],
      "name": "send",
      "outputs": [
        {
          "components": [
            {
              "internalType": "bytes32",
              "name": "guid",
              "type": "bytes32"
            },
            {
              "internalType": "uint64",
              "name": "nonce",
              "type": "uint64"
            },
            {
              "components": [
                {
                  "internalType": "uint256",
                  "name": "nativeFee",
                  "type": "uint256"
                },
                {
                  "internalType": "uint256",
                  "name": "lzTokenFee",
                  "type": "uint256"
                }
              ],
              "internalType": "struct MessagingFee",
              "name": "fee",
              "type": "tuple"
            }
          ],
          "internalType": "struct MessagingReceipt",
          "name": "msgReceipt",
          "type": "tuple"
        },
        {
          "components": [
            {
              "internalType": "uint256",
              "name": "amountSentLD",
              "type": "uint256"
            },
            {
              "internalType": "uint256",
              "name": "amountReceivedLD",
              "type": "uint256"
            }
          ],
          "internalType": "struct OFTReceipt",
          "name": "oftReceipt",
          "type": "tuple"
        }
      ],
      "stateMutability": "payable",
      "type": "function"
    },
    {
      "inputs": [
        {
          "internalType": "address",
          "name": "_address",
          "type": "address"
        },
        {
          "internalType": "bool",
          "name": "_isBlacklisted",
          "type": "bool"
        }
      ],
      "name": "setBlacklist",
      "outputs": [],
      "stateMutability": "nonpayable",
      "type": "function"
    },
    {
      "inputs": [
        {
          "internalType": "address",
          "name": "_delegate",
          "type": "address"
        }
      ],
      "name": "setDelegate",
      "outputs": [],
      "stateMutability": "nonpayable",
      "type": "function"
    },
    {
      "inputs": [
        {
          "internalType": "address",
          "name": "_dev",
          "type": "address"
        }
      ],
      "name": "setDevWallet",
      "outputs": [],
      "stateMutability": "nonpayable",
      "type": "function"
    },
    {
      "inputs": [
        {
          "components": [
            {
              "internalType": "uint32",
              "name": "eid",
              "type": "uint32"
            },
            {
              "internalType": "uint16",
              "name": "msgType",
              "type": "uint16"
            },
            {
              "internalType": "bytes",
              "name": "options",
              "type": "bytes"
            }
          ],
          "internalType": "struct EnforcedOptionParam[]",
          "name": "_enforcedOptions",
          "type": "tuple[]"
        }
      ],
      "name": "setEnforcedOptions",
      "outputs": [],
      "stateMutability": "nonpayable",
      "type": "function"
    },
    {
      "inputs": [
        {
          "internalType": "address",
          "name": "_address",
          "type": "address"
        },
        {
          "internalType": "bool",
          "name": "_isExempt",
          "type": "bool"
        }
      ],
      "name": "setMaxBuyExempt",
      "outputs": [],
      "stateMutability": "nonpayable",
      "type": "function"
    },
    {
      "inputs": [
        {
          "internalType": "address",
          "name": "_msgInspector",
          "type": "address"
        }
      ],
      "name": "setMsgInspector",
      "outputs": [],
      "stateMutability": "nonpayable",
      "type": "function"
    },
    {
      "inputs": [
        {
          "internalType": "uint32",
          "name": "_eid",
          "type": "uint32"
        },
        {
          "internalType": "bytes32",
          "name": "_peer",
          "type": "bytes32"
        }
      ],
      "name": "setPeer",
      "outputs": [],
      "stateMutability": "nonpayable",
      "type": "function"
    },
    {
      "inputs": [
        {
          "internalType": "address",
          "name": "_preCrime",
          "type": "address"
        }
      ],
      "name": "setPreCrime",
      "outputs": [],
      "stateMutability": "nonpayable",
      "type": "function"
    },
    {
      "inputs": [
        {
          "internalType": "address",
          "name": "lp",
          "type": "address"
        },
        {
          "internalType": "bool",
          "name": "isPool",
          "type": "bool"
        }
      ],
      "name": "setProvideLiquidity",
      "outputs": [],
      "stateMutability": "nonpayable",
      "type": "function"
    },
    {
      "inputs": [
        {
          "internalType": "bool",
          "name": "_enabled",
          "type": "bool"
        }
      ],
      "name": "setSwapBackEnabled",
      "outputs": [],
      "stateMutability": "nonpayable",
      "type": "function"
    },
    {
      "inputs": [],
      "name": "sharedDecimals",
      "outputs": [
        {
          "internalType": "uint8",
          "name": "",
          "type": "uint8"
        }
      ],
      "stateMutability": "pure",
      "type": "function"
    },
    {
      "inputs": [],
      "name": "startTrading",
      "outputs": [],
      "stateMutability": "nonpayable",
      "type": "function"
    },
    {
      "inputs": [],
      "name": "symbol",
      "outputs": [
        {
          "internalType": "string",
          "name": "",
          "type": "string"
        }
      ],
      "stateMutability": "view",
      "type": "function"
    },
    {
      "inputs": [],
      "name": "token",
      "outputs": [
        {
          "internalType": "address",
          "name": "",
          "type": "address"
        }
      ],
      "stateMutability": "view",
      "type": "function"
    },
    {
      "inputs": [],
      "name": "totalSupply",
      "outputs": [
        {
          "internalType": "uint256",
          "name": "",
          "type": "uint256"
        }
      ],
      "stateMutability": "view",
      "type": "function"
    },
    {
      "inputs": [
        {
          "internalType": "address",
          "name": "to",
          "type": "address"
        },
        {
          "internalType": "uint256",
          "name": "value",
          "type": "uint256"
        }
      ],
      "name": "transfer",
      "outputs": [
        {
          "internalType": "bool",
          "name": "",
          "type": "bool"
        }
      ],
      "stateMutability": "nonpayable",
      "type": "function"
    },
    {
      "inputs": [
        {
          "internalType": "address",
          "name": "from",
          "type": "address"
        },
        {
          "internalType": "address",
          "name": "to",
          "type": "address"
        },
        {
          "internalType": "uint256",
          "name": "value",
          "type": "uint256"
        }
      ],
      "name": "transferFrom",
      "outputs": [
        {
          "internalType": "bool",
          "name": "",
          "type": "bool"
        }
      ],
      "stateMutability": "nonpayable",
      "type": "function"
    },
    {
      "inputs": [
        {
          "internalType": "address",
          "name": "newOwner",
          "type": "address"
        }
      ],
      "name": "transferOwnership",
      "outputs": [],
      "stateMutability": "nonpayable",
      "type": "function"
    },
    {
      "stateMutability": "payable",
      "type": "receive"
    }
  ],
  "bytecode": "0x60e06040526101f4601055612710601181905560646012556013556015805461ffff191690553480156200003257600080fd5b506040516200440938038062004409833981016040819052620000559162000615565b84848484838360128484818181818e6001600160a01b0381166200009357604051631e4fbdf760e01b81526000600482015260240160405180910390fd5b6200009e81620004db565b506001600160a01b038083166080528116620000cd57604051632d618d8160e21b815260040160405180910390fd5b60805160405163ca5eb5e160e01b81526001600160a01b0383811660048301529091169063ca5eb5e190602401600060405180830381600087803b1580156200011557600080fd5b505af11580156200012a573d6000803e3d6000fd5b5050505050505050620001426200052b60201b60201c565b60ff168360ff16101562000169576040516301e9714b60e41b815260040160405180910390fd5b62000176600684620006cd565b6200018390600a620007ec565b60a0525060089150620001999050838262000895565b506009620001a8828262000895565b5050600a80546001600160a01b0319166001600160a01b0388169081179091556040805163c45a015560e01b8152905191965063c45a0155955060048082019550602094509192508290030181865afa1580156200020a573d6000803e3d6000fd5b505050506040513d601f19601f8201168201806040525081019062000230919062000961565b6001600160a01b031663c9c65396600a60009054906101000a90046001600160a01b03166001600160a01b031663ad5c46486040518163ffffffff1660e01b8152600401602060405180830381865afa15801562000292573d6000803e3d6000fd5b505050506040513d601f19601f82011682018060405250810190620002b8919062000961565b6040516001600160e01b031960e084901b1681526001600160a01b0390911660048201523060248201526044016020604051808303816000875af115801562000305573d6000803e3d6000fd5b505050506040513d601f19601f820116820180604052508101906200032b919062000961565b6001600160a01b031660c08190526000908152600f60205260408120805460ff19166001179055600019906006906200036c6000546001600160a01b031690565b6001600160a01b03908116825260208083019390935260409182016000908120918616808252918452828120949094553084526006835281842090845290915281206000199055600190600c90620003cc6000546001600160a01b031690565b6001600160a01b0316815260208082019290925260409081016000908120805494151560ff19958616179055308152600c909252812080549092166001908117909255600d90620004256000546001600160a01b031690565b6001600160a01b0316815260208101919091526040016000908120805460ff191692151592909217909155600190600e90620004696000546001600160a01b031690565b6001600160a01b03908116825260208083019390935260409182016000908120805495151560ff19968716179055308152600e90935281832080548516600190811790915560c05182168452828420805486168217905594168252902080549091169091179055506200097f92505050565b600080546001600160a01b038381166001600160a01b0319831681178455604051919092169283917f8be0079c531659141344cd1fd0a4f28419497f9722a3daafe3b4186f6b6457e09190a35050565b600690565b634e487b7160e01b600052604160045260246000fd5b600082601f8301126200055857600080fd5b81516001600160401b038082111562000575576200057562000530565b604051601f8301601f19908116603f01168101908282118183101715620005a057620005a062000530565b8160405283815260209250866020858801011115620005be57600080fd5b600091505b83821015620005e25785820183015181830184015290820190620005c3565b6000602085830101528094505050505092915050565b80516001600160a01b03811681146200061057600080fd5b919050565b600080600080600060a086880312156200062e57600080fd5b85516001600160401b03808211156200064657600080fd5b6200065489838a0162000546565b965060208801519150808211156200066b57600080fd5b506200067a8882890162000546565b9450506200068b60408701620005f8565b92506200069b60608701620005f8565b9150620006ab60808701620005f8565b90509295509295909350565b634e487b7160e01b600052601160045260246000fd5b60ff8281168282160390811115620006e957620006e9620006b7565b92915050565b600181815b8085111562000730578160001904821115620007145762000714620006b7565b808516156200072257918102915b93841c9390800290620006f4565b509250929050565b6000826200074957506001620006e9565b816200075857506000620006e9565b81600181146200077157600281146200077c576200079c565b6001915050620006e9565b60ff841115620007905762000790620006b7565b50506001821b620006e9565b5060208310610133831016604e8410600b8410161715620007c1575081810a620006e9565b620007cd8383620006ef565b8060001904821115620007e457620007e4620006b7565b029392505050565b6000620007fd60ff84168362000738565b9392505050565b600181811c908216806200081957607f821691505b6020821081036200083a57634e487b7160e01b600052602260045260246000fd5b50919050565b601f82111562000890576000816000526020600020601f850160051c810160208610156200086b5750805b601f850160051c820191505b818110156200088c5782815560010162000877565b5050505b505050565b81516001600160401b03811115620008b157620008b162000530565b620008c981620008c2845462000804565b8462000840565b602080601f831160018114620009015760008415620008e85750858301515b600019600386901b1c1916600185901b1785556200088c565b600085815260208120601f198616915b82811015620009325788860151825594840194600190910190840162000911565b5085821015620009515787850151600019600388901b60f8161c191681555b5050505050600190811b01905550565b6000602082840312156200097457600080fd5b620007fd82620005f8565b60805160a05160c051613a0d620009fc60003960008181610804015261187f0152600081816107bc0152818161210a0152818161217f01526125c301526000818161069b01528181610cc1015281816116be01528181611a9601528181611dac01528181611f59015281816126c801526127810152613a0d6000f3fe6080604052600436106103545760003560e01c80637d25a05e116101c6578063bf56b371116100f7578063dd62ed3e11610095578063f887ea401161006f578063f887ea4014610a46578063fc0c546a1461061f578063fdad930214610a66578063ff7bd03d14610a8657600080fd5b8063dd62ed3e146109c0578063e3acfb9114610a06578063f2fde38b14610a2657600080fd5b8063ca5eb5e1116100d1578063ca5eb5e11461093d578063d045a0dc1461095d578063d424388514610970578063dbac26e91461099057600080fd5b8063bf56b371146108e6578063c5730d9d146108fc578063c7c7f5b31461091c57600080fd5b8063a9059cbb11610164578063b98bd0701161013e578063b98bd07014610866578063bb0b6a5314610886578063bc70b354146108b3578063bd815db0146108d357600080fd5b8063a9059cbb14610826578063b731ea0a14610846578063b92d0eff1461061f57600080fd5b806395d89b41116101a057806395d89b4114610795578063963efcaa146107aa5780639f68b964146107de578063a8aa1b31146107f257600080fd5b80637d25a05e14610728578063857749b0146107635780638da5cb5b1461077757600080fd5b80631f5e1334116102a057806352ae28791161023e5780635e280f11116102185780635e280f11146106895780636fc1b31e146106bd57806370a08231146106dd578063715018a61461071357600080fd5b806352ae28791461061f5780635535d461146106325780635a0dfe4d1461065257600080fd5b8063313ce5671161027a578063313ce567146105905780633400288b146105b25780633b6f743b146105d25780633c8f81d0146105ff57600080fd5b80631f5e13341461054657806323b872dd1461055b578063293230b81461057b57600080fd5b8063134d4f251161030d57806317442b70116102e757806317442b70146104c657806318160ddd146104e75780631e53dbe9146105065780631f53ac021461052657600080fd5b8063134d4f2514610457578063153b0d1e1461047f578063156a0d0f1461049f57600080fd5b806306fdde0314610360578063095ea7b31461038b5780630961fbf7146103bb5780630d35b415146103dd578063111ecdad1461040c57806313137d651461044457600080fd5b3661035b57005b600080fd5b34801561036c57600080fd5b50610375610aa6565b6040516103829190612b27565b60405180910390f35b34801561039757600080fd5b506103ab6103a6366004612b4f565b610b38565b6040519015158152602001610382565b3480156103c757600080fd5b506103db6103d6366004612b7b565b610b52565b005b3480156103e957600080fd5b506103fd6103f8366004612bac565b610bee565b60405161038293929190612be0565b34801561041857600080fd5b5060045461042c906001600160a01b031681565b6040516001600160a01b039091168152602001610382565b6103db610452366004612cd3565b610cbf565b34801561046357600080fd5b5061046c600281565b60405161ffff9091168152602001610382565b34801561048b57600080fd5b506103db61049a366004612d80565b610d7a565b3480156104ab57600080fd5b506040805162b9270b60e21b81526001602082015201610382565b3480156104d257600080fd5b50604080516001808252602082015201610382565b3480156104f357600080fd5b506007545b604051908152602001610382565b34801561051257600080fd5b506103db610521366004612db9565b610dad565b34801561053257600080fd5b506103db610541366004612dd6565b610e00565b34801561055257600080fd5b5061046c600181565b34801561056757600080fd5b506103ab610576366004612df3565b610e32565b34801561058757600080fd5b506103db610e58565b34801561059c57600080fd5b5060125b60405160ff9091168152602001610382565b3480156105be57600080fd5b506103db6105cd366004612e4d565b610e83565b3480156105de57600080fd5b506105f26105ed366004612e69565b610ee1565b6040516103829190612eaf565b34801561060b57600080fd5b506103db61061a366004612dd6565b610f48565b34801561062b57600080fd5b503061042c565b34801561063e57600080fd5b5061037561064d366004612ed8565b610f74565b34801561065e57600080fd5b506103ab61066d366004612e4d565b63ffffffff919091166000908152600160205260409020541490565b34801561069557600080fd5b5061042c7f000000000000000000000000000000000000000000000000000000000000000081565b3480156106c957600080fd5b506103db6106d8366004612dd6565b611019565b3480156106e957600080fd5b506104f86106f8366004612dd6565b6001600160a01b031660009081526005602052604090205490565b34801561071f57600080fd5b506103db611076565b34801561073457600080fd5b5061074b610743366004612e4d565b600092915050565b6040516001600160401b039091168152602001610382565b34801561076f57600080fd5b5060066105a0565b34801561078357600080fd5b506000546001600160a01b031661042c565b3480156107a157600080fd5b5061037561108a565b3480156107b657600080fd5b506104f87f000000000000000000000000000000000000000000000000000000000000000081565b3480156107ea57600080fd5b5060006103ab565b3480156107fe57600080fd5b5061042c7f000000000000000000000000000000000000000000000000000000000000000081565b34801561083257600080fd5b506103ab610841366004612b4f565b611099565b34801561085257600080fd5b5060025461042c906001600160a01b031681565b34801561087257600080fd5b506103db610881366004612f4f565b6110a7565b34801561089257600080fd5b506104f86108a1366004612f90565b60016020526000908152604090205481565b3480156108bf57600080fd5b506103756108ce366004612fab565b611208565b6103db6108e1366004612f4f565b611383565b3480156108f257600080fd5b506104f860145481565b34801561090857600080fd5b506103db610917366004612b7b565b61150d565b61092f61092a36600461300b565b61159d565b604051610382929190613078565b34801561094957600080fd5b506103db610958366004612dd6565b611697565b6103db61096b366004612cd3565b61171d565b34801561097c57600080fd5b506103db61098b366004612dd6565b61174c565b34801561099c57600080fd5b506103ab6109ab366004612dd6565b600b6020526000908152604090205460ff1681565b3480156109cc57600080fd5b506104f86109db3660046130ca565b6001600160a01b03918216600090815260066020908152604080832093909416825291909152205490565b348015610a1257600080fd5b506103db610a21366004612d80565b6117a2565b348015610a3257600080fd5b506103db610a41366004612dd6565b611806565b348015610a5257600080fd5b50600a5461042c906001600160a01b031681565b348015610a7257600080fd5b506103db610a81366004612d80565b611844565b348015610a9257600080fd5b506103ab610aa13660046130f8565b61193e565b606060088054610ab590613114565b80601f0160208091040260200160405190810160405280929190818152602001828054610ae190613114565b8015610b2e5780601f10610b0357610100808354040283529160200191610b2e565b820191906000526020600020905b815481529060010190602001808311610b1157829003601f168201915b5050505050905090565b600033610b46818585611974565b60019150505b92915050565b6015546201000090046001600160a01b0316336001600160a01b031614610b945760405162461bcd60e51b8152600401610b8b90613148565b60405180910390fd5b60155447906201000090046001600160a01b03166108fc6064610bb785856131a3565b610bc191906131ba565b6040518115909202916000818181858888f19350505050158015610be9573d6000803e3d6000fd5b505050565b60408051808201909152600080825260208201526060610c21604051806040016040528060008152602001600081525090565b60408051808201825260008082526001600160401b03602080840182905284518381529081019094529195509182610c7c565b604080518082019091526000815260606020820152815260200190600190039081610c545790505b509350600080610ca1604089013560608a0135610c9c60208c018c612f90565b611981565b60408051808201909152918252602082015296989597505050505050565b7f00000000000000000000000000000000000000000000000000000000000000006001600160a01b03163314610d0a576040516391ac5e4f60e01b8152336004820152602401610b8b565b60208701803590610d2490610d1f908a612f90565b6119c5565b14610d6257610d366020880188612f90565b60405163309afaf360e21b815263ffffffff909116600482015260208801356024820152604401610b8b565b610d7187878787878787611a01565b50505050505050565b610d82611b68565b6001600160a01b03919091166000908152600b60205260409020805460ff1916911515919091179055565b6015546201000090046001600160a01b0316336001600160a01b031614610de65760405162461bcd60e51b8152600401610b8b90613148565b601580549115156101000261ff0019909216919091179055565b610e08611b68565b601580546001600160a01b03909216620100000262010000600160b01b0319909216919091179055565b600033610e40858285611b95565b610e4b858585611c13565b60019150505b9392505050565b610e60611b68565b60155460ff1615610e7057600080fd5b6015805460ff1916600117905543601455565b610e8b611b68565b63ffffffff8216600081815260016020908152604091829020849055815192835282018390527f238399d427b947898edb290f5ff0f9109849b1c3ba196a42e35f00c50a54b98b91015b60405180910390a15050565b60408051808201909152600080825260208201526000610f1160408501356060860135610c9c6020880188612f90565b915050600080610f218684611c72565b9092509050610f3e610f366020880188612f90565b838388611d96565b9695505050505050565b610f50611b68565b6001600160a01b03166000908152600d60205260409020805460ff19166001179055565b600360209081526000928352604080842090915290825290208054610f9890613114565b80601f0160208091040260200160405190810160405280929190818152602001828054610fc490613114565b80156110115780601f10610fe657610100808354040283529160200191611011565b820191906000526020600020905b815481529060010190602001808311610ff457829003601f168201915b505050505081565b611021611b68565b600480546001600160a01b0319166001600160a01b0383169081179091556040519081527ff0be4f1e87349231d80c36b33f9e8639658eeaf474014dee15a3e6a4d4414197906020015b60405180910390a150565b61107e611b68565b6110886000611e77565b565b606060098054610ab590613114565b600033610b46818585611c13565b6110af611b68565b60005b818110156111d6576110f48383838181106110cf576110cf6131f2565b90506020028101906110e19190613208565b6110ef906040810190613228565b611ec7565b828282818110611106576111066131f2565b90506020028101906111189190613208565b611126906040810190613228565b6003600086868681811061113c5761113c6131f2565b905060200281019061114e9190613208565b61115c906020810190612f90565b63ffffffff1663ffffffff168152602001908152602001600020600086868681811061118a5761118a6131f2565b905060200281019061119c9190613208565b6111ad90604081019060200161326e565b61ffff1681526020810191909152604001600020916111cd9190836132d9565b506001016110b2565b507fbe4864a8e820971c0247f5992e2da559595f7bf076a21cb5928d443d2a13b6748282604051610ed59291906133c1565b63ffffffff8416600090815260036020908152604080832061ffff8716845290915281208054606092919061123c90613114565b80601f016020809104026020016040519081016040528092919081815260200182805461126890613114565b80156112b55780601f1061128a576101008083540402835291602001916112b5565b820191906000526020600020905b81548152906001019060200180831161129857829003601f168201915b5050505050905080516000036113055783838080601f01602080910402602001604051908101604052809392919081815260200183838082843760009201919091525092945061137b9350505050565b600083900361131557905061137b565b6002831061135e576113278484611ec7565b8061133584600281886134a5565b604051602001611347939291906134cf565b60405160208183030381529060405291505061137b565b8383604051639a6d49cd60e01b8152600401610b8b9291906134f7565b949350505050565b60005b8181101561148c57368383838181106113a1576113a16131f2565b90506020028101906113b3919061350b565b90506113e66113c56020830183612f90565b602083013563ffffffff919091166000908152600160205260409020541490565b6113f05750611484565b3063d045a0dc60c08301358360a081013561140f610100830183613228565b611420610100890160e08a01612dd6565b61142e6101208a018a613228565b6040518963ffffffff1660e01b81526004016114509796959493929190613537565b6000604051808303818588803b15801561146957600080fd5b505af115801561147d573d6000803e3d6000fd5b5050505050505b600101611386565b50336001600160a01b0316638e9e70996040518163ffffffff1660e01b8152600401600060405180830381865afa1580156114cb573d6000803e3d6000fd5b505050506040513d6000823e601f3d908101601f191682016040526114f391908101906135e5565b604051638351eea760e01b8152600401610b8b9190612b27565b6015546201000090046001600160a01b0316336001600160a01b0316146115465760405162461bcd60e51b8152600401610b8b90613148565b6010548111156115985760405162461bcd60e51b815260206004820152601c60248201527f4465204c617965723a2043616e277420696e63726561736520666565000000006044820152606401610b8b565b601055565b6115a5612a90565b60408051808201909152600080825260208201526000806115db604088013560608901356115d660208b018b612f90565b611f09565b915091506000806115ec8984611c72565b909250905061161861160160208b018b612f90565b8383611612368d90038d018d613686565b8b611f26565b60408051808201909152858152602080820186905282519298509096503391907f85496b760a4b7f8d66384b9df21b381f5d1b1e79f229a47aaf4c232edc2fe59a90611666908d018d612f90565b6040805163ffffffff909216825260208201899052810187905260600160405180910390a350505050935093915050565b61169f611b68565b60405163ca5eb5e160e01b81526001600160a01b0382811660048301527f0000000000000000000000000000000000000000000000000000000000000000169063ca5eb5e190602401600060405180830381600087803b15801561170257600080fd5b505af1158015611716573d6000803e3d6000fd5b5050505050565b33301461173d5760405163029a949d60e31b815260040160405180910390fd5b610d7187878787878787610d62565b611754611b68565b600280546001600160a01b0319166001600160a01b0383169081179091556040519081527fd48d879cef83a1c0bdda516f27b13ddb1b3f8bbac1c9e1511bb2a659c24277609060200161106b565b6015546201000090046001600160a01b0316336001600160a01b0316146117db5760405162461bcd60e51b8152600401610b8b90613148565b6001600160a01b03919091166000908152600e60205260409020805460ff1916911515919091179055565b61180e611b68565b6001600160a01b03811661183857604051631e4fbdf760e01b815260006004820152602401610b8b565b61184181611e77565b50565b6015546201000090046001600160a01b0316336001600160a01b03161461187d5760405162461bcd60e51b8152600401610b8b90613148565b7f00000000000000000000000000000000000000000000000000000000000000006001600160a01b0316826001600160a01b0316036119135760405162461bcd60e51b815260206004820152602c60248201527f4465204c617965723a2043616e277420616c7465722063757272656e74206c6960448201526b38bab4b234ba3c903830b4b960a11b6064820152608401610b8b565b6001600160a01b03919091166000908152600f60205260409020805460ff1916911515919091179055565b60006020820180359060019083906119569086612f90565b63ffffffff1681526020810191909152604001600020541492915050565b610be98383836001612031565b60008061198d85612106565b9150819050838110156119bd576040516371c4efed60e01b81526004810182905260248101859052604401610b8b565b935093915050565b63ffffffff811660009081526001602052604081205480610b4c5760405163f6ff4fb760e01b815263ffffffff84166004820152602401610b8b565b6000611a13611a10878761213d565b90565b90506000611a3f82611a2d611a288a8a612155565b612178565b611a3a60208d018d612f90565b6121ad565b90506028861115611b06576000611a7c611a5f60608c0160408d016136b8565b611a6c60208d018d612f90565b84611a778c8c6121c1565b61220c565b604051633e5ac80960e11b81529091506001600160a01b037f00000000000000000000000000000000000000000000000000000000000000001690637cb5901290611ad29086908d9060009087906004016136d5565b600060405180830381600087803b158015611aec57600080fd5b505af1158015611b00573d6000803e3d6000fd5b50505050505b6001600160a01b038216887fefed6d3500546b29533b128a29e3a94d70788727f0507505ac12eaf2e578fd9c611b3f60208d018d612f90565b6040805163ffffffff9092168252602082018690520160405180910390a3505050505050505050565b6000546001600160a01b031633146110885760405163118cdaa760e01b8152336004820152602401610b8b565b6001600160a01b038381166000908152600660209081526040808320938616835292905220546000198114611c0d5781811015611bfe57604051637dc7a0d960e11b81526001600160a01b03841660048201526024810182905260448101839052606401610b8b565b611c0d84848484036000612031565b50505050565b6001600160a01b038316611c3d57604051634b637e8f60e11b815260006004820152602401610b8b565b6001600160a01b038216611c675760405163ec442f0560e01b815260006004820152602401610b8b565b610be983838361223e565b6060806000611ccf8560200135611c88866125bc565b611c9560a0890189613228565b8080601f0160208091040260200160405190810160405280939291908181526020018383808284376000920191909152506125e892505050565b9093509050600081611ce2576001611ce5565b60025b9050611d05611cf76020880188612f90565b826108ce60808a018a613228565b6004549093506001600160a01b031615611d8d576004805460405163043a78eb60e01b81526001600160a01b039091169163043a78eb91611d4a918891889101613706565b602060405180830381865afa158015611d67573d6000803e3d6000fd5b505050506040513d601f19601f82011682018060405250810190611d8b919061372b565b505b50509250929050565b60408051808201909152600080825260208201527f00000000000000000000000000000000000000000000000000000000000000006001600160a01b031663ddc28c586040518060a001604052808863ffffffff168152602001611df9896119c5565b8152602001878152602001868152602001851515815250306040518363ffffffff1660e01b8152600401611e2e929190613748565b6040805180830381865afa158015611e4a573d6000803e3d6000fd5b505050506040513d601f19601f82011682018060405250810190611e6e91906137f1565b95945050505050565b600080546001600160a01b038381166001600160a01b0319831681178455604051919092169283917f8be0079c531659141344cd1fd0a4f28419497f9722a3daafe3b4186f6b6457e09190a35050565b6000611ed660028284866134a5565b611edf9161380d565b60f01c905060038114610be9578282604051639a6d49cd60e01b8152600401610b8b9291906134f7565b600080611f17858585611981565b90925090506119bd3383612662565b611f2e612a90565b6000611f3d846000015161269c565b602085015190915015611f5757611f5784602001516126c4565b7f00000000000000000000000000000000000000000000000000000000000000006001600160a01b0316632637a450826040518060a001604052808b63ffffffff168152602001611fa78c6119c5565b81526020018a815260200189815260200160008960200151111515815250866040518463ffffffff1660e01b8152600401611fe3929190613748565b60806040518083038185885af1158015612001573d6000803e3d6000fd5b50505050506040513d601f19601f82011682018060405250810190612026919061383d565b979650505050505050565b6001600160a01b03841661205b5760405163e602df0560e01b815260006004820152602401610b8b565b6001600160a01b03831661208557604051634a1406b160e11b815260006004820152602401610b8b565b6001600160a01b0380851660009081526006602090815260408083209387168352929052208290558015611c0d57826001600160a01b0316846001600160a01b03167f8c5be1e5ebec7d5bd14f71427d1e84f3dd0314c0f7b2291e5b200ac8c7c3b925846040516120f891815260200190565b60405180910390a350505050565b60007f000000000000000000000000000000000000000000000000000000000000000061213381846131ba565b610b4c91906131a3565b600061214c60208284866134a5565b610e51916138a4565b60006121656028602084866134a5565b61216e916138c2565b60c01c9392505050565b6000610b4c7f00000000000000000000000000000000000000000000000000000000000000006001600160401b0384166131a3565b60006121b984846127a6565b509092915050565b60606121d082602881866134a5565b8080601f016020809104026020016040519081016040528093929190818152602001838380828437600092019190915250929695505050505050565b60608484848460405160200161222594939291906138f0565b6040516020818303038152906040529050949350505050565b6000806001600160a01b0385161580159061226157506001600160a01b03841615155b15612475576001600160a01b0385166000908152600b602052604090205460ff16806122a557506001600160a01b0384166000908152600b602052604090205460ff165b156122d65760405163496ffc3f60e01b81526001600160a01b03808716600483015285166024820152604401610b8b565b6014541580156122fe57506001600160a01b0384166000908152600f602052604090205460ff165b15612341576001600160a01b0385166000908152600d602052604090205460ff1661233c5760405163345dc39f60e21b815260040160405180910390fd5b436014555b60155460ff1615801561236d57506001600160a01b0385166000908152600d602052604090205460ff16155b801561239257506001600160a01b0384166000908152600d602052604090205460ff16155b156123b05760405163345dc39f60e21b815260040160405180910390fd5b601554600160b01b900460ff16612475576001600160a01b0385166000908152600f602052604090205460ff16801561240257506001600160a01b0384166000908152600e602052604090205460ff16155b8015612417575069d3c21bcecceda100000083115b156124385760405163073fe07160e41b815260048101849052602401610b8b565b6001600160a01b0385166000908152600c602052604090205460ff16159150612460846127dc565b801561246c5750600083115b15612475575060015b6001600160a01b0385166124a0578260076000828254612495919061393f565b909155506125129050565b6001600160a01b038516600090815260056020526040902054838110156124f35760405163391434e360e21b81526001600160a01b03871660048201526024810182905260448101859052606401610b8b565b6001600160a01b03861660009081526005602052604090209084900390555b60008261251f578361252a565b61252a868686612842565b90506001600160a01b03851661254857600780548590039055612567565b6001600160a01b03851660009081526005602052604090208054820190555b846001600160a01b0316866001600160a01b03167fddf252ad1be2c89b69c2b068fc378daa952ba7f163c4a11628f55a4df523b3ef836040516125ac91815260200190565b60405180910390a3505050505050565b6000610b4c7f0000000000000000000000000000000000000000000000000000000000000000836131ba565b805160609015158061263157848460405160200161261d92919091825260c01b6001600160c01b031916602082015260280190565b604051602081830303815290604052612658565b848433856040516020016126489493929190613952565b6040516020818303038152906040525b9150935093915050565b6001600160a01b03821661268c57604051634b637e8f60e11b815260006004820152602401610b8b565b6126988260008361223e565b5050565b60008134146126c0576040516304fb820960e51b8152346004820152602401610b8b565b5090565b60007f00000000000000000000000000000000000000000000000000000000000000006001600160a01b031663e4fe1d946040518163ffffffff1660e01b8152600401602060405180830381865afa158015612724573d6000803e3d6000fd5b505050506040513d601f19601f820116820180604052508101906127489190613995565b90506001600160a01b038116612771576040516329b99a9560e11b815260040160405180910390fd5b6126986001600160a01b038216337f0000000000000000000000000000000000000000000000000000000000000000856128e4565b6001600160a01b0382166127d05760405163ec442f0560e01b815260006004820152602401610b8b565b6126986000838361223e565b336000908152600f602052604081205460ff161580156128065750601554600160b01b900460ff16155b801561282a57506001600160a01b0382166000908152600f602052604090205460ff165b8015610b4c575050601554610100900460ff16919050565b6001600160a01b0383166000908152600f6020526040812054819060ff168061288357506001600160a01b0384166000908152600f602052604090205460ff165b9050806128935782915050610e51565b6000601154601054856128a691906131a3565b6128b091906131ba565b306000908152600560205260408120805492935083929091906128d490849061393f565b90915550610f3e905081856139b2565b604080516001600160a01b038581166024830152848116604483015260648083018590528351808403909101815260849092019092526020810180516001600160e01b03166323b872dd60e01b179052611c0d9186919060009061294a90841683612998565b9050805160001415801561296f57508080602001905181019061296d919061372b565b155b15610be957604051635274afe760e01b81526001600160a01b0384166004820152602401610b8b565b6060610e518383600084600080856001600160a01b031684866040516129be91906139c5565b60006040518083038185875af1925050503d80600081146129fb576040519150601f19603f3d011682016040523d82523d6000602084013e612a00565b606091505b5091509150610f3e868383606082612a2057612a1b82612a67565b610e51565b8151158015612a3757506001600160a01b0384163b155b15612a6057604051639996b31560e01b81526001600160a01b0385166004820152602401610b8b565b5080610e51565b805115612a775780518082602001fd5b604051630a12f52160e11b815260040160405180910390fd5b60405180606001604052806000801916815260200160006001600160401b03168152602001612ad2604051806040016040528060008152602001600081525090565b905290565b60005b83811015612af2578181015183820152602001612ada565b50506000910152565b60008151808452612b13816020860160208601612ad7565b601f01601f19169290920160200192915050565b602081526000610e516020830184612afb565b6001600160a01b038116811461184157600080fd5b60008060408385031215612b6257600080fd5b8235612b6d81612b3a565b946020939093013593505050565b600060208284031215612b8d57600080fd5b5035919050565b600060e08284031215612ba657600080fd5b50919050565b600060208284031215612bbe57600080fd5b81356001600160401b03811115612bd457600080fd5b61137b84828501612b94565b8351815260208085015190820152600060a08201604060a0604085015281865180845260c08601915060c08160051b8701019350602080890160005b83811015612c5b5788870360bf19018552815180518852830151838801879052612c4887890182612afb565b9750509382019390820190600101612c1c565b5050875160608801525050506020850151608085015250905061137b565b600060608284031215612ba657600080fd5b60008083601f840112612c9d57600080fd5b5081356001600160401b03811115612cb457600080fd5b602083019150836020828501011115612ccc57600080fd5b9250929050565b600080600080600080600060e0888a031215612cee57600080fd5b612cf88989612c79565b96506060880135955060808801356001600160401b0380821115612d1b57600080fd5b612d278b838c01612c8b565b909750955060a08a01359150612d3c82612b3a565b90935060c08901359080821115612d5257600080fd5b50612d5f8a828b01612c8b565b989b979a50959850939692959293505050565b801515811461184157600080fd5b60008060408385031215612d9357600080fd5b8235612d9e81612b3a565b91506020830135612dae81612d72565b809150509250929050565b600060208284031215612dcb57600080fd5b8135610e5181612d72565b600060208284031215612de857600080fd5b8135610e5181612b3a565b600080600060608486031215612e0857600080fd5b8335612e1381612b3a565b92506020840135612e2381612b3a565b929592945050506040919091013590565b803563ffffffff81168114612e4857600080fd5b919050565b60008060408385031215612e6057600080fd5b612b6d83612e34565b60008060408385031215612e7c57600080fd5b82356001600160401b03811115612e9257600080fd5b612e9e85828601612b94565b9250506020830135612dae81612d72565b815181526020808301519082015260408101610b4c565b803561ffff81168114612e4857600080fd5b60008060408385031215612eeb57600080fd5b612ef483612e34565b9150612f0260208401612ec6565b90509250929050565b60008083601f840112612f1d57600080fd5b5081356001600160401b03811115612f3457600080fd5b6020830191508360208260051b8501011115612ccc57600080fd5b60008060208385031215612f6257600080fd5b82356001600160401b03811115612f7857600080fd5b612f8485828601612f0b565b90969095509350505050565b600060208284031215612fa257600080fd5b610e5182612e34565b60008060008060608587031215612fc157600080fd5b612fca85612e34565b9350612fd860208601612ec6565b925060408501356001600160401b03811115612ff357600080fd5b612fff87828801612c8b565b95989497509550505050565b6000806000838503608081121561302157600080fd5b84356001600160401b0381111561303757600080fd5b61304387828801612b94565b9450506040601f198201121561305857600080fd5b50602084019150606084013561306d81612b3a565b809150509250925092565b600060c082019050835182526001600160401b03602085015116602083015260408401516130b3604084018280518252602090810151910152565b5082516080830152602083015160a0830152610e51565b600080604083850312156130dd57600080fd5b82356130e881612b3a565b91506020830135612dae81612b3a565b60006060828403121561310a57600080fd5b610e518383612c79565b600181811c9082168061312857607f821691505b602082108103612ba657634e487b7160e01b600052602260045260246000fd5b60208082526025908201527f4465204c617965723a2043616c6c6572206973206e6f742061207465616d206d60408201526432b6b132b960d91b606082015260800190565b634e487b7160e01b600052601160045260246000fd5b8082028115828204841417610b4c57610b4c61318d565b6000826131d757634e487b7160e01b600052601260045260246000fd5b500490565b634e487b7160e01b600052604160045260246000fd5b634e487b7160e01b600052603260045260246000fd5b60008235605e1983360301811261321e57600080fd5b9190910192915050565b6000808335601e1984360301811261323f57600080fd5b8301803591506001600160401b0382111561325957600080fd5b602001915036819003821315612ccc57600080fd5b60006020828403121561328057600080fd5b610e5182612ec6565b601f821115610be9576000816000526020600020601f850160051c810160208610156132b25750805b601f850160051c820191505b818110156132d1578281556001016132be565b505050505050565b6001600160401b038311156132f0576132f06131dc565b613304836132fe8354613114565b83613289565b6000601f84116001811461333857600085156133205750838201355b600019600387901b1c1916600186901b178355611716565b600083815260209020601f19861690835b828110156133695786850135825560209485019460019092019101613349565b50868210156133865760001960f88860031b161c19848701351681555b505060018560011b0183555050505050565b81835281816020850137506000828201602090810191909152601f909101601f19169091010190565b60208082528181018390526000906040808401600586901b8501820187855b8881101561349757878303603f190184528135368b9003605e1901811261340657600080fd5b8a01606063ffffffff61341883612e34565b16855261ffff613429898401612ec6565b168886015286820135601e1983360301811261344457600080fd5b9091018781019190356001600160401b0381111561346157600080fd5b80360383131561347057600080fd5b81888701526134828287018285613398565b968901969550505091860191506001016133e0565b509098975050505050505050565b600080858511156134b557600080fd5b838611156134c257600080fd5b5050820193919092039150565b600084516134e1818460208901612ad7565b8201838582376000930192835250909392505050565b60208152600061137b602083018486613398565b6000823561013e1983360301811261321e57600080fd5b6001600160401b038116811461184157600080fd5b63ffffffff61354589612e34565b168152602088013560208201526000604089013561356281613522565b6001600160401b03811660408401525087606083015260e0608083015261358d60e083018789613398565b6001600160a01b03861660a084015282810360c08401526135af818587613398565b9a9950505050505050505050565b604080519081016001600160401b03811182821017156135df576135df6131dc565b60405290565b6000602082840312156135f757600080fd5b81516001600160401b038082111561360e57600080fd5b818401915084601f83011261362257600080fd5b815181811115613634576136346131dc565b604051601f8201601f19908116603f0116810190838211818310171561365c5761365c6131dc565b8160405282815287602084870101111561367557600080fd5b612026836020830160208801612ad7565b60006040828403121561369857600080fd5b6136a06135bd565b82358152602083013560208201528091505092915050565b6000602082840312156136ca57600080fd5b8135610e5181613522565b60018060a01b038516815283602082015261ffff83166040820152608060608201526000610f3e6080830184612afb565b6040815260006137196040830185612afb565b8281036020840152611e6e8185612afb565b60006020828403121561373d57600080fd5b8151610e5181612d72565b6040815263ffffffff8351166040820152602083015160608201526000604084015160a0608084015261377e60e0840182612afb565b90506060850151603f198483030160a085015261379b8282612afb565b60809690960151151560c08501525050506001600160a01b039190911660209091015290565b6000604082840312156137d357600080fd5b6137db6135bd565b9050815181526020820151602082015292915050565b60006040828403121561380357600080fd5b610e5183836137c1565b6001600160f01b031981358181169160028510156138355780818660020360031b1b83161692505b505092915050565b60006080828403121561384f57600080fd5b604051606081018181106001600160401b0382111715613871576138716131dc565b60405282518152602083015161388681613522565b602082015261389884604085016137c1565b60408201529392505050565b80356020831015610b4c57600019602084900360031b1b1692915050565b6001600160c01b031981358181169160088510156138355760089490940360031b84901b1690921692915050565b6001600160401b0360c01b8560c01b16815263ffffffff60e01b8460e01b16600882015282600c8201526000825161392f81602c850160208701612ad7565b91909101602c0195945050505050565b80820180821115610b4c57610b4c61318d565b8481526001600160401b0360c01b8460c01b16602082015282602882015260008251613985816048850160208701612ad7565b9190910160480195945050505050565b6000602082840312156139a757600080fd5b8151610e5181612b3a565b81810381811115610b4c57610b4c61318d565b6000825161321e818460208701612ad756fea2646970667358221220d918b0c57040fa296782ae1d4f326dd7b2bcc0eead53e7788ce8900a5252198764736f6c63430008160033",
  "linkReferences": {},
  "deployedLinkReferences": {}
}