{
  "_format": "hh-sol-artifact-1",
  "contractName": "DeLayerAdapter",
  "sourceName": "contracts/DeLayerAdapter.sol",
  "abi": [
    {
      "inputs": [
        {
          "internalType": "address",
          "name": "_token",
          "type": "address"
        },
        {
          "internalType": "address",
          "name": "_layerZeroEndpoint",
          "type": "address"
        },
        {
          "internalType": "address",
          "name": "_owner",
          "type": "address"
        }
      ],
      "stateMutability": "nonpayable",
      "type": "constructor"
    },
    {
      "inputs": [
        {
          "internalType": "address",
          "name": "target",
          "type": "address"
        }
      ],
      "name": "AddressEmptyCode",
      "type": "error"
    },
    {
      "inputs": [
        {
          "internalType": "address",
          "name": "account",
          "type": "address"
        }
      ],
      "name": "AddressInsufficientBalance",
      "type": "error"
    },
    {
      "inputs": [],
      "name": "FailedInnerCall",
      "type": "error"
    },
    {
      "inputs": [],
      "name": "InvalidDelegate",
      "type": "error"
    },
    {
      "inputs": [],
      "name": "InvalidEndpointCall",
      "type": "error"
    },
    {
      "inputs": [],
      "name": "InvalidLocalDecimals",
      "type": "error"
    },
    {
      "inputs": [
        {
          "internalType": "bytes",
          "name": "options",
          "type": "bytes"
        }
      ],
      "name": "InvalidOptions",
      "type": "error"
    },
    {
      "inputs": [],
      "name": "LzTokenUnavailable",
      "type": "error"
    },
    {
      "inputs": [
        {
          "internalType": "uint32",
          "name": "eid",
          "type": "uint32"
        }
      ],
      "name": "NoPeer",
      "type": "error"
    },
    {
      "inputs": [
        {
          "internalType": "uint256",
          "name": "msgValue",
          "type": "uint256"
        }
      ],
      "name": "NotEnoughNative",
      "type": "error"
    },
    {
      "inputs": [
        {
          "internalType": "address",
          "name": "addr",
          "type": "address"
        }
      ],
      "name": "OnlyEndpoint",
      "type": "error"
    },
    {
      "inputs": [
        {
          "internalType": "uint32",
          "name": "eid",
          "type": "uint32"
        },
        {
          "internalType": "bytes32",
          "name": "sender",
          "type": "bytes32"
        }
      ],
      "name": "OnlyPeer",
      "type": "error"
    },
    {
      "inputs": [],
      "name": "OnlySelf",
      "type": "error"
    },
    {
      "inputs": [
        {
          "internalType": "address",
          "name": "owner",
          "type": "address"
        }
      ],
      "name": "OwnableInvalidOwner",
      "type": "error"
    },
    {
      "inputs": [
        {
          "internalType": "address",
          "name": "account",
          "type": "address"
        }
      ],
      "name": "OwnableUnauthorizedAccount",
      "type": "error"
    },
    {
      "inputs": [
        {
          "internalType": "address",
          "name": "token",
          "type": "address"
        }
      ],
      "name": "SafeERC20FailedOperation",
      "type": "error"
    },
    {
      "inputs": [
        {
          "internalType": "bytes",
          "name": "result",
          "type": "bytes"
        }
      ],
      "name": "SimulationResult",
      "type": "error"
    },
    {
      "inputs": [
        {
          "internalType": "uint256",
          "name": "amountLD",
          "type": "uint256"
        },
        {
          "internalType": "uint256",
          "name": "minAmountLD",
          "type": "uint256"
        }
      ],
      "name": "SlippageExceeded",
      "type": "error"
    },
    {
      "anonymous": false,
      "inputs": [
        {
          "components": [
            {
              "internalType": "uint32",
              "name": "eid",
              "type": "uint32"
            },
            {
              "internalType": "uint16",
              "name": "msgType",
              "type": "uint16"
            },
            {
              "internalType": "bytes",
              "name": "options",
              "type": "bytes"
            }
          ],
          "indexed": false,
          "internalType": "struct EnforcedOptionParam[]",
          "name": "_enforcedOptions",
          "type": "tuple[]"
        }
      ],
      "name": "EnforcedOptionSet",
      "type": "event"
    },
    {
      "anonymous": false,
      "inputs": [
        {
          "indexed": false,
          "internalType": "address",
          "name": "inspector",
          "type": "address"
        }
      ],
      "name": "MsgInspectorSet",
      "type": "event"
    },
    {
      "anonymous": false,
      "inputs": [
        {
          "indexed": true,
          "internalType": "bytes32",
          "name": "guid",
          "type": "bytes32"
        },
        {
          "indexed": false,
          "internalType": "uint32",
          "name": "srcEid",
          "type": "uint32"
        },
        {
          "indexed": true,
          "internalType": "address",
          "name": "toAddress",
          "type": "address"
        },
        {
          "indexed": false,
          "internalType": "uint256",
          "name": "amountReceivedLD",
          "type": "uint256"
        }
      ],
      "name": "OFTReceived",
      "type": "event"
    },
    {
      "anonymous": false,
      "inputs": [
        {
          "indexed": true,
          "internalType": "bytes32",
          "name": "guid",
          "type": "bytes32"
        },
        {
          "indexed": false,
          "internalType": "uint32",
          "name": "dstEid",
          "type": "uint32"
        },
        {
          "indexed": true,
          "internalType": "address",
          "name": "fromAddress",
          "type": "address"
        },
        {
          "indexed": false,
          "internalType": "uint256",
          "name": "amountSentLD",
          "type": "uint256"
        },
        {
          "indexed": false,
          "internalType": "uint256",
          "name": "amountReceivedLD",
          "type": "uint256"
        }
      ],
      "name": "OFTSent",
      "type": "event"
    },
    {
      "anonymous": false,
      "inputs": [
        {
          "indexed": true,
          "internalType": "address",
          "name": "previousOwner",
          "type": "address"
        },
        {
          "indexed": true,
          "internalType": "address",
          "name": "newOwner",
          "type": "address"
        }
      ],
      "name": "OwnershipTransferred",
      "type": "event"
    },
    {
      "anonymous": false,
      "inputs": [
        {
          "indexed": false,
          "internalType": "uint32",
          "name": "eid",
          "type": "uint32"
        },
        {
          "indexed": false,
          "internalType": "bytes32",
          "name": "peer",
          "type": "bytes32"
        }
      ],
      "name": "PeerSet",
      "type": "event"
    },
    {
      "anonymous": false,
      "inputs": [
        {
          "indexed": false,
          "internalType": "address",
          "name": "preCrimeAddress",
          "type": "address"
        }
      ],
      "name": "PreCrimeSet",
      "type": "event"
    },
    {
      "inputs": [],
      "name": "SEND",
      "outputs": [
        {
          "internalType": "uint16",
          "name": "",
          "type": "uint16"
        }
      ],
      "stateMutability": "view",
      "type": "function"
    },
    {
      "inputs": [],
      "name": "SEND_AND_CALL",
      "outputs": [
        {
          "internalType": "uint16",
          "name": "",
          "type": "uint16"
        }
      ],
      "stateMutability": "view",
      "type": "function"
    },
    {
      "inputs": [
        {
          "components": [
            {
              "internalType": "uint32",
              "name": "srcEid",
              "type": "uint32"
            },
            {
              "internalType": "bytes32",
              "name": "sender",
              "type": "bytes32"
            },
            {
              "internalType": "uint64",
              "name": "nonce",
              "type": "uint64"
            }
          ],
          "internalType": "struct Origin",
          "name": "origin",
          "type": "tuple"
        }
      ],
      "name": "allowInitializePath",
      "outputs": [
        {
          "internalType": "bool",
          "name": "",
          "type": "bool"
        }
      ],
      "stateMutability": "view",
      "type": "function"
    },
    {
      "inputs": [],
      "name": "approvalRequired",
      "outputs": [
        {
          "internalType": "bool",
          "name": "",
          "type": "bool"
        }
      ],
      "stateMutability": "pure",
      "type": "function"
    },
    {
      "inputs": [
        {
          "internalType": "uint32",
          "name": "_eid",
          "type": "uint32"
        },
        {
          "internalType": "uint16",
          "name": "_msgType",
          "type": "uint16"
        },
        {
          "internalType": "bytes",
          "name": "_extraOptions",
          "type": "bytes"
        }
      ],
      "name": "combineOptions",
      "outputs": [
        {
          "internalType": "bytes",
          "name": "",
          "type": "bytes"
        }
      ],
      "stateMutability": "view",
      "type": "function"
    },
    {
      "inputs": [],
      "name": "composeMsgSender",
      "outputs": [
        {
          "internalType": "address",
          "name": "sender",
          "type": "address"
        }
      ],
      "stateMutability": "view",
      "type": "function"
    },
    {
      "inputs": [],
      "name": "decimalConversionRate",
      "outputs": [
        {
          "internalType": "uint256",
          "name": "",
          "type": "uint256"
        }
      ],
      "stateMutability": "view",
      "type": "function"
    },
    {
      "inputs": [],
      "name": "endpoint",
      "outputs": [
        {
          "internalType": "contract ILayerZeroEndpointV2",
          "name": "",
          "type": "address"
        }
      ],
      "stateMutability": "view",
      "type": "function"
    },
    {
      "inputs": [
        {
          "internalType": "uint32",
          "name": "eid",
          "type": "uint32"
        },
        {
          "internalType": "uint16",
          "name": "msgType",
          "type": "uint16"
        }
      ],
      "name": "enforcedOptions",
      "outputs": [
        {
          "internalType": "bytes",
          "name": "enforcedOption",
          "type": "bytes"
        }
      ],
      "stateMutability": "view",
      "type": "function"
    },
    {
      "inputs": [
        {
          "internalType": "uint32",
          "name": "_eid",
          "type": "uint32"
        },
        {
          "internalType": "bytes32",
          "name": "_peer",
          "type": "bytes32"
        }
      ],
      "name": "isPeer",
      "outputs": [
        {
          "internalType": "bool",
          "name": "",
          "type": "bool"
        }
      ],
      "stateMutability": "view",
      "type": "function"
    },
    {
      "inputs": [
        {
          "components": [
            {
              "internalType": "uint32",
              "name": "srcEid",
              "type": "uint32"
            },
            {
              "internalType": "bytes32",
              "name": "sender",
              "type": "bytes32"
            },
            {
              "internalType": "uint64",
              "name": "nonce",
              "type": "uint64"
            }
          ],
          "internalType": "struct Origin",
          "name": "_origin",
          "type": "tuple"
        },
        {
          "internalType": "bytes32",
          "name": "_guid",
          "type": "bytes32"
        },
        {
          "internalType": "bytes",
          "name": "_message",
          "type": "bytes"
        },
        {
          "internalType": "address",
          "name": "_executor",
          "type": "address"
        },
        {
          "internalType": "bytes",
          "name": "_extraData",
          "type": "bytes"
        }
      ],
      "name": "lzReceive",
      "outputs": [],
      "stateMutability": "payable",
      "type": "function"
    },
    {
      "inputs": [
        {
          "components": [
            {
              "components": [
                {
                  "internalType": "uint32",
                  "name": "srcEid",
                  "type": "uint32"
                },
                {
                  "internalType": "bytes32",
                  "name": "sender",
                  "type": "bytes32"
                },
                {
                  "internalType": "uint64",
                  "name": "nonce",
                  "type": "uint64"
                }
              ],
              "internalType": "struct Origin",
              "name": "origin",
              "type": "tuple"
            },
            {
              "internalType": "uint32",
              "name": "dstEid",
              "type": "uint32"
            },
            {
              "internalType": "address",
              "name": "receiver",
              "type": "address"
            },
            {
              "internalType": "bytes32",
              "name": "guid",
              "type": "bytes32"
            },
            {
              "internalType": "uint256",
              "name": "value",
              "type": "uint256"
            },
            {
              "internalType": "address",
              "name": "executor",
              "type": "address"
            },
            {
              "internalType": "bytes",
              "name": "message",
              "type": "bytes"
            },
            {
              "internalType": "bytes",
              "name": "extraData",
              "type": "bytes"
            }
          ],
          "internalType": "struct InboundPacket[]",
          "name": "_packets",
          "type": "tuple[]"
        }
      ],
      "name": "lzReceiveAndRevert",
      "outputs": [],
      "stateMutability": "payable",
      "type": "function"
    },
    {
      "inputs": [
        {
          "components": [
            {
              "internalType": "uint32",
              "name": "srcEid",
              "type": "uint32"
            },
            {
              "internalType": "bytes32",
              "name": "sender",
              "type": "bytes32"
            },
            {
              "internalType": "uint64",
              "name": "nonce",
              "type": "uint64"
            }
          ],
          "internalType": "struct Origin",
          "name": "_origin",
          "type": "tuple"
        },
        {
          "internalType": "bytes32",
          "name": "_guid",
          "type": "bytes32"
        },
        {
          "internalType": "bytes",
          "name": "_message",
          "type": "bytes"
        },
        {
          "internalType": "address",
          "name": "_executor",
          "type": "address"
        },
        {
          "internalType": "bytes",
          "name": "_extraData",
          "type": "bytes"
        }
      ],
      "name": "lzReceiveSimulate",
      "outputs": [],
      "stateMutability": "payable",
      "type": "function"
    },
    {
      "inputs": [],
      "name": "msgInspector",
      "outputs": [
        {
          "internalType": "address",
          "name": "",
          "type": "address"
        }
      ],
      "stateMutability": "view",
      "type": "function"
    },
    {
      "inputs": [
        {
          "internalType": "uint32",
          "name": "",
          "type": "uint32"
        },
        {
          "internalType": "bytes32",
          "name": "",
          "type": "bytes32"
        }
      ],
      "name": "nextNonce",
      "outputs": [
        {
          "internalType": "uint64",
          "name": "nonce",
          "type": "uint64"
        }
      ],
      "stateMutability": "view",
      "type": "function"
    },
    {
      "inputs": [],
      "name": "oApp",
      "outputs": [
        {
          "internalType": "address",
          "name": "",
          "type": "address"
        }
      ],
      "stateMutability": "view",
      "type": "function"
    },
    {
      "inputs": [],
      "name": "oAppVersion",
      "outputs": [
        {
          "internalType": "uint64",
          "name": "senderVersion",
          "type": "uint64"
        },
        {
          "internalType": "uint64",
          "name": "receiverVersion",
          "type": "uint64"
        }
      ],
      "stateMutability": "pure",
      "type": "function"
    },
    {
      "inputs": [],
      "name": "oftVersion",
      "outputs": [
        {
          "internalType": "bytes4",
          "name": "interfaceId",
          "type": "bytes4"
        },
        {
          "internalType": "uint64",
          "name": "version",
          "type": "uint64"
        }
      ],
      "stateMutability": "pure",
      "type": "function"
    },
    {
      "inputs": [],
      "name": "owner",
      "outputs": [
        {
          "internalType": "address",
          "name": "",
          "type": "address"
        }
      ],
      "stateMutability": "view",
      "type": "function"
    },
    {
      "inputs": [
        {
          "internalType": "uint32",
          "name": "eid",
          "type": "uint32"
        }
      ],
      "name": "peers",
      "outputs": [
        {
          "internalType": "bytes32",
          "name": "peer",
          "type": "bytes32"
        }
      ],
      "stateMutability": "view",
      "type": "function"
    },
    {
      "inputs": [],
      "name": "preCrime",
      "outputs": [
        {
          "internalType": "address",
          "name": "",
          "type": "address"
        }
      ],
      "stateMutability": "view",
      "type": "function"
    },
    {
      "inputs": [
        {
          "components": [
            {
              "internalType": "uint32",
              "name": "dstEid",
              "type": "uint32"
            },
            {
              "internalType": "bytes32",
              "name": "to",
              "type": "bytes32"
            },
            {
              "internalType": "uint256",
              "name": "amountLD",
              "type": "uint256"
            },
            {
              "internalType": "uint256",
              "name": "minAmountLD",
              "type": "uint256"
            },
            {
              "internalType": "bytes",
              "name": "extraOptions",
              "type": "bytes"
            },
            {
              "internalType": "bytes",
              "name": "composeMsg",
              "type": "bytes"
            },
            {
              "internalType": "bytes",
              "name": "oftCmd",
              "type": "bytes"
            }
          ],
          "internalType": "struct SendParam",
          "name": "_sendParam",
          "type": "tuple"
        }
      ],
      "name": "quoteOFT",
      "outputs": [
        {
          "components": [
            {
              "internalType": "uint256",
              "name": "minAmountLD",
              "type": "uint256"
            },
            {
              "internalType": "uint256",
              "name": "maxAmountLD",
              "type": "uint256"
            }
          ],
          "internalType": "struct OFTLimit",
          "name": "oftLimit",
          "type": "tuple"
        },
        {
          "components": [
            {
              "internalType": "int256",
              "name": "feeAmountLD",
              "type": "int256"
            },
            {
              "internalType": "string",
              "name": "description",
              "type": "string"
            }
          ],
          "internalType": "struct OFTFeeDetail[]",
          "name": "oftFeeDetails",
          "type": "tuple[]"
        },
        {
          "components": [
            {
              "internalType": "uint256",
              "name": "amountSentLD",
              "type": "uint256"
            },
            {
              "internalType": "uint256",
              "name": "amountReceivedLD",
              "type": "uint256"
            }
          ],
          "internalType": "struct OFTReceipt",
          "name": "oftReceipt",
          "type": "tuple"
        }
      ],
      "stateMutability": "view",
      "type": "function"
    },
    {
      "inputs": [
        {
          "components": [
            {
              "internalType": "uint32",
              "name": "dstEid",
              "type": "uint32"
            },
            {
              "internalType": "bytes32",
              "name": "to",
              "type": "bytes32"
            },
            {
              "internalType": "uint256",
              "name": "amountLD",
              "type": "uint256"
            },
            {
              "internalType": "uint256",
              "name": "minAmountLD",
              "type": "uint256"
            },
            {
              "internalType": "bytes",
              "name": "extraOptions",
              "type": "bytes"
            },
            {
              "internalType": "bytes",
              "name": "composeMsg",
              "type": "bytes"
            },
            {
              "internalType": "bytes",
              "name": "oftCmd",
              "type": "bytes"
            }
          ],
          "internalType": "struct SendParam",
          "name": "_sendParam",
          "type": "tuple"
        },
        {
          "internalType": "bool",
          "name": "_payInLzToken",
          "type": "bool"
        }
      ],
      "name": "quoteSend",
      "outputs": [
        {
          "components": [
            {
              "internalType": "uint256",
              "name": "nativeFee",
              "type": "uint256"
            },
            {
              "internalType": "uint256",
              "name": "lzTokenFee",
              "type": "uint256"
            }
          ],
          "internalType": "struct MessagingFee",
          "name": "msgFee",
          "type": "tuple"
        }
      ],
      "stateMutability": "view",
      "type": "function"
    },
    {
      "inputs": [],
      "name": "renounceOwnership",
      "outputs": [],
      "stateMutability": "nonpayable",
      "type": "function"
    },
    {
      "inputs": [
        {
          "components": [
            {
              "internalType": "uint32",
              "name": "dstEid",
              "type": "uint32"
            },
            {
              "internalType": "bytes32",
              "name": "to",
              "type": "bytes32"
            },
            {
              "internalType": "uint256",
              "name": "amountLD",
              "type": "uint256"
            },
            {
              "internalType": "uint256",
              "name": "minAmountLD",
              "type": "uint256"
            },
            {
              "internalType": "bytes",
              "name": "extraOptions",
              "type": "bytes"
            },
            {
              "internalType": "bytes",
              "name": "composeMsg",
              "type": "bytes"
            },
            {
              "internalType": "bytes",
              "name": "oftCmd",
              "type": "bytes"
            }
          ],
          "internalType": "struct SendParam",
          "name": "_sendParam",
          "type": "tuple"
        },
        {
          "components": [
            {
              "internalType": "uint256",
              "name": "nativeFee",
              "type": "uint256"
            },
            {
              "internalType": "uint256",
              "name": "lzTokenFee",
              "type": "uint256"
            }
          ],
          "internalType": "struct MessagingFee",
          "name": "_fee",
          "type": "tuple"
        },
        {
          "internalType": "address",
          "name": "_refundAddress",
          "type": "address"
        }
      ],
      "name": "send",
      "outputs": [
        {
          "components": [
            {
              "internalType": "bytes32",
              "name": "guid",
              "type": "bytes32"
            },
            {
              "internalType": "uint64",
              "name": "nonce",
              "type": "uint64"
            },
            {
              "components": [
                {
                  "internalType": "uint256",
                  "name": "nativeFee",
                  "type": "uint256"
                },
                {
                  "internalType": "uint256",
                  "name": "lzTokenFee",
                  "type": "uint256"
                }
              ],
              "internalType": "struct MessagingFee",
              "name": "fee",
              "type": "tuple"
            }
          ],
          "internalType": "struct MessagingReceipt",
          "name": "msgReceipt",
          "type": "tuple"
        },
        {
          "components": [
            {
              "internalType": "uint256",
              "name": "amountSentLD",
              "type": "uint256"
            },
            {
              "internalType": "uint256",
              "name": "amountReceivedLD",
              "type": "uint256"
            }
          ],
          "internalType": "struct OFTReceipt",
          "name": "oftReceipt",
          "type": "tuple"
        }
      ],
      "stateMutability": "payable",
      "type": "function"
    },
    {
      "inputs": [
        {
          "internalType": "address",
          "name": "_delegate",
          "type": "address"
        }
      ],
      "name": "setDelegate",
      "outputs": [],
      "stateMutability": "nonpayable",
      "type": "function"
    },
    {
      "inputs": [
        {
          "components": [
            {
              "internalType": "uint32",
              "name": "eid",
              "type": "uint32"
            },
            {
              "internalType": "uint16",
              "name": "msgType",
              "type": "uint16"
            },
            {
              "internalType": "bytes",
              "name": "options",
              "type": "bytes"
            }
          ],
          "internalType": "struct EnforcedOptionParam[]",
          "name": "_enforcedOptions",
          "type": "tuple[]"
        }
      ],
      "name": "setEnforcedOptions",
      "outputs": [],
      "stateMutability": "nonpayable",
      "type": "function"
    },
    {
      "inputs": [
        {
          "internalType": "address",
          "name": "_msgInspector",
          "type": "address"
        }
      ],
      "name": "setMsgInspector",
      "outputs": [],
      "stateMutability": "nonpayable",
      "type": "function"
    },
    {
      "inputs": [
        {
          "internalType": "uint32",
          "name": "_eid",
          "type": "uint32"
        },
        {
          "internalType": "bytes32",
          "name": "_peer",
          "type": "bytes32"
        }
      ],
      "name": "setPeer",
      "outputs": [],
      "stateMutability": "nonpayable",
      "type": "function"
    },
    {
      "inputs": [
        {
          "internalType": "address",
          "name": "_preCrime",
          "type": "address"
        }
      ],
      "name": "setPreCrime",
      "outputs": [],
      "stateMutability": "nonpayable",
      "type": "function"
    },
    {
      "inputs": [],
      "name": "sharedDecimals",
      "outputs": [
        {
          "internalType": "uint8",
          "name": "",
          "type": "uint8"
        }
      ],
      "stateMutability": "pure",
      "type": "function"
    },
    {
      "inputs": [],
      "name": "token",
      "outputs": [
        {
          "internalType": "address",
          "name": "",
          "type": "address"
        }
      ],
      "stateMutability": "view",
      "type": "function"
    },
    {
      "inputs": [
        {
          "internalType": "address",
          "name": "newOwner",
          "type": "address"
        }
      ],
      "name": "transferOwnership",
      "outputs": [],
      "stateMutability": "nonpayable",
      "type": "function"
    }
  ],
  "bytecode": "0x60e06040523480156200001157600080fd5b5060405162002eae38038062002eae833981016040819052620000349162000254565b828282826001600160a01b031663313ce5676040518163ffffffff1660e01b8152600401602060405180830381865afa15801562000076573d6000803e3d6000fd5b505050506040513d601f19601f820116820180604052508101906200009c91906200029e565b8282818181818a6001600160a01b038116620000d257604051631e4fbdf760e01b81526000600482015260240160405180910390fd5b620000dd81620001e2565b506001600160a01b0380831660805281166200010c57604051632d618d8160e21b815260040160405180910390fd5b60805160405163ca5eb5e160e01b81526001600160a01b0383811660048301529091169063ca5eb5e190602401600060405180830381600087803b1580156200015457600080fd5b505af115801562000169573d6000803e3d6000fd5b5050505050505050620001816200023260201b60201c565b60ff168360ff161015620001a8576040516301e9714b60e41b815260040160405180910390fd5b620001b5600684620002e0565b620001c290600a620003ff565b60a0525050506001600160a01b0390921660c05250620004109350505050565b600080546001600160a01b038381166001600160a01b0319831681178455604051919092169283917f8be0079c531659141344cd1fd0a4f28419497f9722a3daafe3b4186f6b6457e09190a35050565b600690565b80516001600160a01b03811681146200024f57600080fd5b919050565b6000806000606084860312156200026a57600080fd5b620002758462000237565b9250620002856020850162000237565b9150620002956040850162000237565b90509250925092565b600060208284031215620002b157600080fd5b815160ff81168114620002c357600080fd5b9392505050565b634e487b7160e01b600052601160045260246000fd5b60ff8281168282160390811115620002fc57620002fc620002ca565b92915050565b600181815b8085111562000343578160001904821115620003275762000327620002ca565b808516156200033557918102915b93841c939080029062000307565b509250929050565b6000826200035c57506001620002fc565b816200036b57506000620002fc565b81600181146200038457600281146200038f57620003af565b6001915050620002fc565b60ff841115620003a357620003a3620002ca565b50506001821b620002fc565b5060208310610133831016604e8410600b8410161715620003d4575081810a620002fc565b620003e0838362000302565b8060001904821115620003f757620003f7620002ca565b029392505050565b6000620002c360ff8416836200034b565b60805160a05160c051612a1a6200049460003960008181610648015281816115a901526117990152600081816104c1015281816116e00152818161175c015261184c0152600081816103e30152818161075f01528181610f81015281816111ee0152818161142701528181611604015281816119840152611a3d0152612a1a6000f3fe6080604052600436106101ee5760003560e01c8063857749b01161010d578063bc70b354116100a0578063d045a0dc1161006f578063d045a0dc146105e6578063d4243885146105f9578063f2fde38b14610619578063fc0c546a14610639578063ff7bd03d1461066c57600080fd5b8063bc70b35414610572578063bd815db014610592578063c7c7f5b3146105a5578063ca5eb5e1146105c657600080fd5b8063b731ea0a116100dc578063b731ea0a14610505578063b92d0eff1461034a578063b98bd07014610525578063bb0b6a531461054557600080fd5b8063857749b0146104755780638da5cb5b14610491578063963efcaa146104af5780639f68b964146104f157600080fd5b80633b6f743b116101855780635e280f11116101545780635e280f11146103d15780636fc1b31e14610405578063715018a6146104255780637d25a05e1461043a57600080fd5b80633b6f743b1461031d57806352ae28791461034a5780635535d4611461035d5780635a0dfe4d1461038a57600080fd5b8063156a0d0f116101c1578063156a0d0f146102a057806317442b70146102c75780631f5e1334146102e85780633400288b146102fd57600080fd5b80630d35b415146101f3578063111ecdad1461022b57806313137d6514610263578063134d4f2514610278575b600080fd5b3480156101ff57600080fd5b5061021361020e366004611c60565b61068c565b60405161022293929190611ce4565b60405180910390f35b34801561023757600080fd5b5060045461024b906001600160a01b031681565b6040516001600160a01b039091168152602001610222565b610276610271366004611dec565b61075d565b005b34801561028457600080fd5b5061028d600281565b60405161ffff9091168152602001610222565b3480156102ac57600080fd5b506040805162b9270b60e21b81526001602082015201610222565b3480156102d357600080fd5b50604080516001808252602082015201610222565b3480156102f457600080fd5b5061028d600181565b34801561030957600080fd5b50610276610318366004611ea4565b61081d565b34801561032957600080fd5b5061033d610338366004611edc565b61087b565b6040516102229190611f2d565b34801561035657600080fd5b503061024b565b34801561036957600080fd5b5061037d610378366004611f56565b6108e4565b6040516102229190611f89565b34801561039657600080fd5b506103c16103a5366004611ea4565b63ffffffff919091166000908152600160205260409020541490565b6040519015158152602001610222565b3480156103dd57600080fd5b5061024b7f000000000000000000000000000000000000000000000000000000000000000081565b34801561041157600080fd5b50610276610420366004611f9c565b610989565b34801561043157600080fd5b506102766109e6565b34801561044657600080fd5b5061045d610455366004611ea4565b600092915050565b6040516001600160401b039091168152602001610222565b34801561048157600080fd5b5060405160068152602001610222565b34801561049d57600080fd5b506000546001600160a01b031661024b565b3480156104bb57600080fd5b506104e37f000000000000000000000000000000000000000000000000000000000000000081565b604051908152602001610222565b3480156104fd57600080fd5b5060016103c1565b34801561051157600080fd5b5060025461024b906001600160a01b031681565b34801561053157600080fd5b50610276610540366004611ffd565b6109fa565b34801561055157600080fd5b506104e361056036600461203e565b60016020526000908152604090205481565b34801561057e57600080fd5b5061037d61058d366004612059565b610b5b565b6102766105a0366004611ffd565b610cd6565b6105b86105b33660046120b9565b610e60565b604051610222929190612126565b3480156105d257600080fd5b506102766105e1366004611f9c565b610f5a565b6102766105f4366004611dec565b610fe0565b34801561060557600080fd5b50610276610614366004611f9c565b61100f565b34801561062557600080fd5b50610276610634366004611f9c565b611065565b34801561064557600080fd5b507f000000000000000000000000000000000000000000000000000000000000000061024b565b34801561067857600080fd5b506103c1610687366004612178565b6110a3565b604080518082019091526000808252602082015260606106bf604051806040016040528060008152602001600081525090565b60408051808201825260008082526001600160401b0360208084018290528451838152908101909452919550918261071a565b6040805180820190915260008152606060208201528152602001906001900390816106f25790505b50935060008061073f604089013560608a013561073a60208c018c61203e565b6110d9565b60408051808201909152918252602082015296989597505050505050565b7f00000000000000000000000000000000000000000000000000000000000000006001600160a01b031633146107ad576040516391ac5e4f60e01b81523360048201526024015b60405180910390fd5b602087018035906107c7906107c2908a61203e565b61111d565b14610805576107d9602088018861203e565b60405163309afaf360e21b815263ffffffff9091166004820152602088013560248201526044016107a4565b61081487878787878787611159565b50505050505050565b6108256112c0565b63ffffffff8216600081815260016020908152604091829020849055815192835282018390527f238399d427b947898edb290f5ff0f9109849b1c3ba196a42e35f00c50a54b98b91015b60405180910390a15050565b604080518082019091526000808252602082015260006108ab6040850135606086013561073a602088018861203e565b9150506000806108bb86846112ed565b90925090506108d86108d0602088018861203e565b838388611411565b93505050505b92915050565b600360209081526000928352604080842090915290825290208054610908906121aa565b80601f0160208091040260200160405190810160405280929190818152602001828054610934906121aa565b80156109815780601f1061095657610100808354040283529160200191610981565b820191906000526020600020905b81548152906001019060200180831161096457829003601f168201915b505050505081565b6109916112c0565b600480546001600160a01b0319166001600160a01b0383169081179091556040519081527ff0be4f1e87349231d80c36b33f9e8639658eeaf474014dee15a3e6a4d4414197906020015b60405180910390a150565b6109ee6112c0565b6109f860006114f2565b565b610a026112c0565b60005b81811015610b2957610a47838383818110610a2257610a226121de565b9050602002810190610a3491906121f4565b610a42906040810190612214565b611542565b828282818110610a5957610a596121de565b9050602002810190610a6b91906121f4565b610a79906040810190612214565b60036000868686818110610a8f57610a8f6121de565b9050602002810190610aa191906121f4565b610aaf90602081019061203e565b63ffffffff1663ffffffff1681526020019081526020016000206000868686818110610add57610add6121de565b9050602002810190610aef91906121f4565b610b0090604081019060200161225a565b61ffff168152602081019190915260400160002091610b209190836122c5565b50600101610a05565b507fbe4864a8e820971c0247f5992e2da559595f7bf076a21cb5928d443d2a13b674828260405161086f9291906123ad565b63ffffffff8416600090815260036020908152604080832061ffff87168452909152812080546060929190610b8f906121aa565b80601f0160208091040260200160405190810160405280929190818152602001828054610bbb906121aa565b8015610c085780601f10610bdd57610100808354040283529160200191610c08565b820191906000526020600020905b815481529060010190602001808311610beb57829003601f168201915b505050505090508051600003610c585783838080601f016020809104026020016040519081016040528093929190818152602001838380828437600092019190915250929450610cce9350505050565b6000839003610c68579050610cce565b60028310610cb157610c7a8484611542565b80610c888460028188612491565b604051602001610c9a939291906124bb565b604051602081830303815290604052915050610cce565b8383604051639a6d49cd60e01b81526004016107a49291906124e3565b949350505050565b60005b81811015610ddf5736838383818110610cf457610cf46121de565b9050602002810190610d0691906124f7565b9050610d39610d18602083018361203e565b602083013563ffffffff919091166000908152600160205260409020541490565b610d435750610dd7565b3063d045a0dc60c08301358360a0810135610d62610100830183612214565b610d73610100890160e08a01611f9c565b610d816101208a018a612214565b6040518963ffffffff1660e01b8152600401610da39796959493929190612523565b6000604051808303818588803b158015610dbc57600080fd5b505af1158015610dd0573d6000803e3d6000fd5b5050505050505b600101610cd9565b50336001600160a01b0316638e9e70996040518163ffffffff1660e01b8152600401600060405180830381865afa158015610e1e573d6000803e3d6000fd5b505050506040513d6000823e601f3d908101601f19168201604052610e4691908101906125d1565b604051638351eea760e01b81526004016107a49190611f89565b610e68611c01565b6040805180820190915260008082526020820152600080610e9e60408801356060890135610e9960208b018b61203e565b611589565b91509150600080610eaf89846112ed565b9092509050610edb610ec460208b018b61203e565b8383610ed5368d90038d018d612672565b8b6115d1565b60408051808201909152858152602080820186905282519298509096503391907f85496b760a4b7f8d66384b9df21b381f5d1b1e79f229a47aaf4c232edc2fe59a90610f29908d018d61203e565b6040805163ffffffff909216825260208201899052810187905260600160405180910390a350505050935093915050565b610f626112c0565b60405163ca5eb5e160e01b81526001600160a01b0382811660048301527f0000000000000000000000000000000000000000000000000000000000000000169063ca5eb5e190602401600060405180830381600087803b158015610fc557600080fd5b505af1158015610fd9573d6000803e3d6000fd5b5050505050565b3330146110005760405163029a949d60e31b815260040160405180910390fd5b61081487878787878787610805565b6110176112c0565b600280546001600160a01b0319166001600160a01b0383169081179091556040519081527fd48d879cef83a1c0bdda516f27b13ddb1b3f8bbac1c9e1511bb2a659c2427760906020016109db565b61106d6112c0565b6001600160a01b03811661109757604051631e4fbdf760e01b8152600060048201526024016107a4565b6110a0816114f2565b50565b60006020820180359060019083906110bb908661203e565b63ffffffff1681526020810191909152604001600020541492915050565b6000806110e5856116dc565b915081905083811015611115576040516371c4efed60e01b815260048101829052602481018590526044016107a4565b935093915050565b63ffffffff8116600090815260016020526040812054806108de5760405163f6ff4fb760e01b815263ffffffff841660048201526024016107a4565b600061116b6111688787611713565b90565b90506000611197826111856111808a8a611732565b611755565b61119260208d018d61203e565b61178a565b9050602886111561125e5760006111d46111b760608c0160408d016126a4565b6111c460208d018d61203e565b846111cf8c8c6117c8565b611813565b604051633e5ac80960e11b81529091506001600160a01b037f00000000000000000000000000000000000000000000000000000000000000001690637cb590129061122a9086908d9060009087906004016126c1565b600060405180830381600087803b15801561124457600080fd5b505af1158015611258573d6000803e3d6000fd5b50505050505b6001600160a01b038216887fefed6d3500546b29533b128a29e3a94d70788727f0507505ac12eaf2e578fd9c61129760208d018d61203e565b6040805163ffffffff9092168252602082018690520160405180910390a3505050505050505050565b6000546001600160a01b031633146109f85760405163118cdaa760e01b81523360048201526024016107a4565b606080600061134a856020013561130386611845565b61131060a0890189612214565b8080601f01602080910402602001604051908101604052809392919081815260200183838082843760009201919091525061187192505050565b909350905060008161135d576001611360565b60025b9050611380611372602088018861203e565b8261058d60808a018a612214565b6004549093506001600160a01b031615611408576004805460405163043a78eb60e01b81526001600160a01b039091169163043a78eb916113c59188918891016126f2565b602060405180830381865afa1580156113e2573d6000803e3d6000fd5b505050506040513d601f19601f820116820180604052508101906114069190612717565b505b50509250929050565b60408051808201909152600080825260208201527f00000000000000000000000000000000000000000000000000000000000000006001600160a01b031663ddc28c586040518060a001604052808863ffffffff1681526020016114748961111d565b8152602001878152602001868152602001851515815250306040518363ffffffff1660e01b81526004016114a9929190612734565b6040805180830381865afa1580156114c5573d6000803e3d6000fd5b505050506040513d601f19601f820116820180604052508101906114e991906127dd565b95945050505050565b600080546001600160a01b038381166001600160a01b0319831681178455604051919092169283917f8be0079c531659141344cd1fd0a4f28419497f9722a3daafe3b4186f6b6457e09190a35050565b60006115516002828486612491565b61155a916127f9565b60f01c905060038114611584578282604051639a6d49cd60e01b81526004016107a49291906124e3565b505050565b6000806115978585856110d9565b90925090506111156001600160a01b037f0000000000000000000000000000000000000000000000000000000000000000163330856118eb565b6115d9611c01565b60006115e88460000151611958565b602085015190915015611602576116028460200151611980565b7f00000000000000000000000000000000000000000000000000000000000000006001600160a01b0316632637a450826040518060a001604052808b63ffffffff1681526020016116528c61111d565b81526020018a815260200189815260200160008960200151111515815250866040518463ffffffff1660e01b815260040161168e929190612734565b60806040518083038185885af11580156116ac573d6000803e3d6000fd5b50505050506040513d601f19601f820116820180604052508101906116d19190612829565b979650505050505050565b60007f00000000000000000000000000000000000000000000000000000000000000006117098184612890565b6108de91906128b2565b60006117226020828486612491565b61172b916128d7565b9392505050565b6000611742602860208486612491565b61174b916128f5565b60c01c9392505050565b60006108de7f00000000000000000000000000000000000000000000000000000000000000006001600160401b0384166128b2565b60006117c06001600160a01b037f0000000000000000000000000000000000000000000000000000000000000000168585611a66565b509092915050565b60606117d78260288186612491565b8080601f016020809104026020016040519081016040528093929190818152602001838380828437600092019190915250929695505050505050565b60608484848460405160200161182c9493929190612923565b6040516020818303038152906040529050949350505050565b60006108de7f000000000000000000000000000000000000000000000000000000000000000083612890565b80516060901515806118ba5784846040516020016118a692919091825260c01b6001600160c01b031916602082015260280190565b6040516020818303038152906040526118e1565b848433856040516020016118d19493929190612972565b6040516020818303038152906040525b9150935093915050565b6040516001600160a01b0384811660248301528381166044830152606482018390526119529186918216906323b872dd906084015b604051602081830303815290604052915060e01b6020820180516001600160e01b038381831617835250505050611a97565b50505050565b600081341461197c576040516304fb820960e51b81523460048201526024016107a4565b5090565b60007f00000000000000000000000000000000000000000000000000000000000000006001600160a01b031663e4fe1d946040518163ffffffff1660e01b8152600401602060405180830381865afa1580156119e0573d6000803e3d6000fd5b505050506040513d601f19601f82011682018060405250810190611a0491906129b5565b90506001600160a01b038116611a2d576040516329b99a9560e11b815260040160405180910390fd5b611a626001600160a01b038216337f0000000000000000000000000000000000000000000000000000000000000000856118eb565b5050565b6040516001600160a01b0383811660248301526044820183905261158491859182169063a9059cbb90606401611920565b6000611aac6001600160a01b03841683611afa565b90508051600014158015611ad1575080806020019051810190611acf9190612717565b155b1561158457604051635274afe760e01b81526001600160a01b03841660048201526024016107a4565b606061172b8383600084600080856001600160a01b03168486604051611b2091906129d2565b60006040518083038185875af1925050503d8060008114611b5d576040519150601f19603f3d011682016040523d82523d6000602084013e611b62565b606091505b5091509150611b72868383611b7c565b9695505050505050565b606082611b9157611b8c82611bd8565b61172b565b8151158015611ba857506001600160a01b0384163b155b15611bd157604051639996b31560e01b81526001600160a01b03851660048201526024016107a4565b508061172b565b805115611be85780518082602001fd5b604051630a12f52160e11b815260040160405180910390fd5b60405180606001604052806000801916815260200160006001600160401b03168152602001611c43604051806040016040528060008152602001600081525090565b905290565b600060e08284031215611c5a57600080fd5b50919050565b600060208284031215611c7257600080fd5b81356001600160401b03811115611c8857600080fd5b610cce84828501611c48565b60005b83811015611caf578181015183820152602001611c97565b50506000910152565b60008151808452611cd0816020860160208601611c94565b601f01601f19169290920160200192915050565b8351815260208085015190820152600060a08201604060a0604085015281865180845260c08601915060c08160051b8701019350602080890160005b83811015611d5f5788870360bf19018552815180518852830151838801879052611d4c87890182611cb8565b9750509382019390820190600101611d20565b50508751606088015250505060208501516080850152509050610cce565b600060608284031215611c5a57600080fd5b60008083601f840112611da157600080fd5b5081356001600160401b03811115611db857600080fd5b602083019150836020828501011115611dd057600080fd5b9250929050565b6001600160a01b03811681146110a057600080fd5b600080600080600080600060e0888a031215611e0757600080fd5b611e118989611d7d565b96506060880135955060808801356001600160401b0380821115611e3457600080fd5b611e408b838c01611d8f565b909750955060a08a01359150611e5582611dd7565b90935060c08901359080821115611e6b57600080fd5b50611e788a828b01611d8f565b989b979a50959850939692959293505050565b803563ffffffff81168114611e9f57600080fd5b919050565b60008060408385031215611eb757600080fd5b611ec083611e8b565b946020939093013593505050565b80151581146110a057600080fd5b60008060408385031215611eef57600080fd5b82356001600160401b03811115611f0557600080fd5b611f1185828601611c48565b9250506020830135611f2281611ece565b809150509250929050565b8151815260208083015190820152604081016108de565b803561ffff81168114611e9f57600080fd5b60008060408385031215611f6957600080fd5b611f7283611e8b565b9150611f8060208401611f44565b90509250929050565b60208152600061172b6020830184611cb8565b600060208284031215611fae57600080fd5b813561172b81611dd7565b60008083601f840112611fcb57600080fd5b5081356001600160401b03811115611fe257600080fd5b6020830191508360208260051b8501011115611dd057600080fd5b6000806020838503121561201057600080fd5b82356001600160401b0381111561202657600080fd5b61203285828601611fb9565b90969095509350505050565b60006020828403121561205057600080fd5b61172b82611e8b565b6000806000806060858703121561206f57600080fd5b61207885611e8b565b935061208660208601611f44565b925060408501356001600160401b038111156120a157600080fd5b6120ad87828801611d8f565b95989497509550505050565b600080600083850360808112156120cf57600080fd5b84356001600160401b038111156120e557600080fd5b6120f187828801611c48565b9450506040601f198201121561210657600080fd5b50602084019150606084013561211b81611dd7565b809150509250925092565b600060c082019050835182526001600160401b0360208501511660208301526040840151612161604084018280518252602090810151910152565b5082516080830152602083015160a083015261172b565b60006060828403121561218a57600080fd5b61172b8383611d7d565b634e487b7160e01b600052604160045260246000fd5b600181811c908216806121be57607f821691505b602082108103611c5a57634e487b7160e01b600052602260045260246000fd5b634e487b7160e01b600052603260045260246000fd5b60008235605e1983360301811261220a57600080fd5b9190910192915050565b6000808335601e1984360301811261222b57600080fd5b8301803591506001600160401b0382111561224557600080fd5b602001915036819003821315611dd057600080fd5b60006020828403121561226c57600080fd5b61172b82611f44565b601f821115611584576000816000526020600020601f850160051c8101602086101561229e5750805b601f850160051c820191505b818110156122bd578281556001016122aa565b505050505050565b6001600160401b038311156122dc576122dc612194565b6122f0836122ea83546121aa565b83612275565b6000601f841160018114612324576000851561230c5750838201355b600019600387901b1c1916600186901b178355610fd9565b600083815260209020601f19861690835b828110156123555786850135825560209485019460019092019101612335565b50868210156123725760001960f88860031b161c19848701351681555b505060018560011b0183555050505050565b81835281816020850137506000828201602090810191909152601f909101601f19169091010190565b60208082528181018390526000906040808401600586901b8501820187855b8881101561248357878303603f190184528135368b9003605e190181126123f257600080fd5b8a01606063ffffffff61240483611e8b565b16855261ffff612415898401611f44565b168886015286820135601e1983360301811261243057600080fd5b9091018781019190356001600160401b0381111561244d57600080fd5b80360383131561245c57600080fd5b818887015261246e8287018285612384565b968901969550505091860191506001016123cc565b509098975050505050505050565b600080858511156124a157600080fd5b838611156124ae57600080fd5b5050820193919092039150565b600084516124cd818460208901611c94565b8201838582376000930192835250909392505050565b602081526000610cce602083018486612384565b6000823561013e1983360301811261220a57600080fd5b6001600160401b03811681146110a057600080fd5b63ffffffff61253189611e8b565b168152602088013560208201526000604089013561254e8161250e565b6001600160401b03811660408401525087606083015260e0608083015261257960e083018789612384565b6001600160a01b03861660a084015282810360c084015261259b818587612384565b9a9950505050505050505050565b604080519081016001600160401b03811182821017156125cb576125cb612194565b60405290565b6000602082840312156125e357600080fd5b81516001600160401b03808211156125fa57600080fd5b818401915084601f83011261260e57600080fd5b81518181111561262057612620612194565b604051601f8201601f19908116603f0116810190838211818310171561264857612648612194565b8160405282815287602084870101111561266157600080fd5b6116d1836020830160208801611c94565b60006040828403121561268457600080fd5b61268c6125a9565b82358152602083013560208201528091505092915050565b6000602082840312156126b657600080fd5b813561172b8161250e565b60018060a01b038516815283602082015261ffff83166040820152608060608201526000611b726080830184611cb8565b6040815260006127056040830185611cb8565b82810360208401526114e98185611cb8565b60006020828403121561272957600080fd5b815161172b81611ece565b6040815263ffffffff8351166040820152602083015160608201526000604084015160a0608084015261276a60e0840182611cb8565b90506060850151603f198483030160a08501526127878282611cb8565b60809690960151151560c08501525050506001600160a01b039190911660209091015290565b6000604082840312156127bf57600080fd5b6127c76125a9565b9050815181526020820151602082015292915050565b6000604082840312156127ef57600080fd5b61172b83836127ad565b6001600160f01b031981358181169160028510156128215780818660020360031b1b83161692505b505092915050565b60006080828403121561283b57600080fd5b604051606081018181106001600160401b038211171561285d5761285d612194565b6040528251815260208301516128728161250e565b602082015261288484604085016127ad565b60408201529392505050565b6000826128ad57634e487b7160e01b600052601260045260246000fd5b500490565b80820281158282048414176108de57634e487b7160e01b600052601160045260246000fd5b803560208310156108de57600019602084900360031b1b1692915050565b6001600160c01b031981358181169160088510156128215760089490940360031b84901b1690921692915050565b6001600160401b0360c01b8560c01b16815263ffffffff60e01b8460e01b16600882015282600c8201526000825161296281602c850160208701611c94565b91909101602c0195945050505050565b8481526001600160401b0360c01b8460c01b166020820152826028820152600082516129a5816048850160208701611c94565b9190910160480195945050505050565b6000602082840312156129c757600080fd5b815161172b81611dd7565b6000825161220a818460208701611c9456fea2646970667358221220fb90e21071af75d445a4b7a6fbc49675258d930bdf1e1ffd5617aed33281103764736f6c63430008160033",
  "linkReferences": {},
  "deployedLinkReferences": {}
}